:020000040800F2
:10000000A02F0020CD0000088D20000895010008D9
:1000100000000000000000000000000000000000E0
:100020000000000000000000000000008F20000819
:1000300000000000000000001301000891200008EB
:10004000DF00000800000000DF000008DF000008FB
:10005000DF000008DF000008DF000008DF00000804
:1000600000000000DF000008DF000008DF000008DB
:10007000DF000008DF000008DF00000800000000CB
:10008000DF000008DF000008DF000008DF000008D4
:10009000DF000008DF000008DF000008DF000008C4
:1000A000DF000008DF000008DF000008792B0008EF
:1000B000152C0008DF0000080348854600F066FCA8
:1000C00000480047F7090008A02F00200448804797
:1000D00004480047FEE7FEE7FEE7FEE7FEE7FEE72F
:1000E00009220008B9000008EFF3108072B67047CB
:1000F00080F3108870472A4A1368012B03D001232C
:100100001360284A1060284A116028482849016075
:100110007047EFF3108272B62148016800291DD0A4
:10012000002101601F48016800290AD0EFF309810E
:10013000203900680160F0C144464D4656465F468E
:10014000F0C1194909680968F0C9F0B4F0C9A046BE
:10015000A946B246BB46F0BC81F3098882F31088F9
:10016000042040420047104908600E490020086002
:100170000B49012008600F480F49026811430160D4
:100180000A480B4901600D480068006880F3088840
:1001900062B67047EFF3098000B505F091F900BD34
:1001A00090000020880000208C00002004ED00E07A
:1001B0000000001020ED00E00000FF0008ED00E06E
:1001C00030B50B46014600202022012409E00D46EF
:1001D000D5409D4205D31D469540491B2546954077
:1001E00040191546521E002DF1DC30BD70B50024BB
:1001F0002546002801DA01244042002901DA0125C0
:100200004942FFF7DDFFAC4200D04042002C00D055
:10021000494270BDFFB585B006460698144602AD4A
:10022000022846D3002C44D0002003902846803872
:1002300006990027491EFF430191009023E0604387
:10024000801961438A1901461046089A9047002890
:1002500004DCB8002958C919295014E068682246FE
:10026000604381190098C06F6043801908E00B78E3
:100270009C4603780B7063460370401C491C521E59
:10028000002AF4D17F4200986968C06F8842D6DCAA
:1002900022463046089BFFF7BDFF00980699C06FC5
:1002A0002246091A401C60438019491E089BFFF72B
:1002B000B1FF09B0F0BD10B5431A934209D28318BB
:1002C000881803E0401E01785B1E1970521EF9D297
:1002D00010BD03460B439B0703D009E008C9121F5A
:1002E00008C0042AFAD203E00B780370401C491CB2
:1002F000521EF9D210BDD2B201E00270401C491E5C
:10030000FBD270470022F6E710B513460A460446B2
:100310001946FFF7F0FF204610BDCAB2401E4178D3
:10032000401C8A4202D00029F9D100207047421CAB
:100330000178401C0029FBD1801A704710B50022BB
:1003400000E0521C835C8C5CA34201D1002BF8D1ED
:10035000D8B2E1B2401A10BD03460A780270401CC0
:10036000491C002AF9D1184670470000F0B51FB4A7
:1003700088B00B990998002448400999C00F49009A
:1003800049080991C0070B990090490049080B9151
:1003900009990898A64608431CD00B990A98084367
:1003A00018D0099801244000420D4800410D0998D9
:1003B00024050003000B204309900B980003000B59
:1003C00020430B9050181C494018002201901446FD
:1003D000104605E0002001460DB0F0BD032801DA0B
:1003E000034600E003239C46C11A0AAE0AE05F0000
:1003F00008ADED5B4F00F75B7D430027AA187C41F9
:10040000491C5B1E6145F2DD410004AB5A522104D8
:10041000120C0A43240C401C0828DFDB01980290D0
:100420000099704601910090059B049A07990698DF
:1004300000F073F9D0E700000DFCFFFFF0B50C46AB
:100440005C4085B0E40FE40703944C000026640888
:1004500059009446490802460296224321D062463A
:100460000A431ED06200570D4A000E032303550DA8
:10047000012402462C492405781B1B0B360B40181F
:1004800023432643614600901C46501AB44103D3CF
:100490000098401C009002E0921800985B410028F0
:1004A00003DA0020014605B0F0BD00200121090556
:1004B0000746864611E064461D46141BB54106D327
:1004C0006546521BB341744607430C43A646CD070D
:1004D00040084908284392185B4105460D43EAD17C
:1004E0001046184313D060461946504071400843E7
:1004F00006D06046101AB34106D20122002306E05E
:1005000000220123DB0702E00122D24353100098AE
:1005100074460105381C6141029C039D0019694124
:1005200000F0EEF8BFE70000FD0300000EB5C217B3
:10053000C10F5040CA0740180021054B0293019299
:1005400000910A460B4600F0E8F803B000BD000039
:100550003304000070B5CD0F4A0009030123090BD5
:100560001B0519430B4BED070024520D9A4201DA8B
:10057000002070BD074B34339A4203DC9A1A00F016
:100580006DF802E00449511888402C43F1D04042F4
:1005900070BD0000FF030000CDFBFFFFC20FD207BC
:1005A000400040080BD0C10D0723DB01C9184002F1
:1005B0000905400A1143C208400711437047002053
:1005C00001467047CB0FDB07490010B549080246CA
:1005D0000A4307D00A0D07240903E401090B121B83
:1005E000002A01DC002010BDC900440F0C43C100EB
:1005F000E018D205801800F042F810BDF0B51FB425
:100600000646002082B005464024019100901BE080
:10061000019922460F46304600F020F8049A059BC7
:10062000801A994110D310461946224600F0C0F9AD
:10063000361A8F410197224601200021009F00F0C9
:10064000B7F938184D4100902046641E0028DFDCC1
:10065000019B00982946324607B0F0BD10B5202A0C
:1006600004DB0846203AD040002110BD0B46D340A1
:10067000D0402024A21A91400843194610BD0029F9
:1006800004DA401C490001D140084000704770B4B2
:100690000024050C05D11024000402D1002921D02A
:1006A0001124050E01D100020834050F01D100010B
:1006B000241D850F01D18000A41C002801DB40000F
:1006C000641C002908D020252E1B0D46F540A140B2
:1006D00000D001212943084301061B1B000ADB1D32
:1006E00002D5002070BC7047DB051818801800295F
:1006F000F8DA401C4900F5D170BC40084000704752
:1007000010B5002B08DA0024401C614192185B41AF
:100710001A4301D14008400010BDF0B51FB482B0AB
:1007200005460C0003D0084602F006FB02E002F08A
:1007300003FB2030024600902146284600F038F99D
:10074000049B059A04460F4618431143084314D0EE
:10075000184610431BD0009840210A1A18460599E4
:10076000FFF77CFF05460E46009A0599049800F0B5
:100770001FF9084305D0012004E02046394607B0A0
:10078000F0BD0020C11705430E432C4337430099A9
:100790000E986305401A7905E40A00220C43FD0A0D
:1007A0000A3002D500200146E9E701051019694128
:1007B0000C9C0D9D00196941FFF7A2FFDFE70000C7
:1007C000F0B507460846584087B0C00F049048006F
:1007D0000E46590040084908BC1A884105D23846DF
:1007E00031461E4617460B46024658004008104345
:1007F0004CD0300D039040055900400D490D059037
:10080000401A0290402872DA18030121000B0905F2
:100810000843019004980092002805D001995242A3
:100820000020884100920190029840210A1A019903
:10083000009800F0BDF805460C466B4607CB00F06B
:10084000C7F8C0197141039A0E0D0023D7175640FF
:100850001A467A40164344D0049A002A2DD0029AB0
:10086000012A039A15DC1205C01A914101263605AA
:10087000001C7141D20F059ED2070093019202968F
:100880002A462346FFF749FF07B0F0BD38463146F8
:10089000FAE71605224A0F46B218C01AB7410121DD
:1008A0000905001C4F4100187F4111461818794175
:1008B000E20F10436D19644113E0E2076D08154320
:1008C0006408C2071443039A01261205C01A914115
:1008D0003605001C7141CE07400830434908C01856
:1008E00051412A462346FFF70BFFCDE7FFE7049867
:1008F00001224000C117121A00238B41049831468F
:10090000C417381AA141EEE730B40124E40763406C
:1009100030BC55E730B40124E407614030BC4FE7F8
:100920000000E0FF4A0009030123090B1B051943DE
:100930000A4B10B5520D9A4202DA0020014610BD52
:10094000064B34339A4203DC9A1AFFF787FE10BD38
:10095000034BD21800F02CF810BD0000FF0300007C
:10096000CDFBFFFF10B5002904DB0124E407404262
:100970008C412146002B04DB1C460123DB0752423D
:10098000A341994200D1904210BD0000064C0125C0
:10099000064E05E0E36807CC2B430C3C9847103427
:1009A000B442F7D3FFF78CFBC86F0008E86F00086C
:1009B00010B5202A04DB0146203A9140002010BDEA
:1009C000914020239C1A0346E3401943904010BDF8
:1009D00010B5202A06DBCB170846203A1041C11774
:1009E0000B4306E00B461341D0402024A21A91404D
:1009F0000843194610BD10B505F09CFE002010BD3F
:100A000010B5002400F08CF804E0601CC4B2012092
:100A100004F0EEFD01210903104800F085FA0028DA
:100A200001D0C82CF1DBC82C01DB012010BD002453
:100A300004E0601CC4B2012004F0DAFD01210903C6
:100A4000064800F071FA002801D1F02CF1DBF02CFF
:100A500001DB0120EAE70020E8E700000004005085
:100A6000F0B585B000F0DAF800F0BEF8FFF7C8FF87
:100A7000CC2000F0DFF8BE2000F0DCF800F0A2F897
:100A8000074600F09FF80446072C05DDE043C4B29A
:100A9000F843C7B2002600E001262546280205B229
:100AA000E81905B22846FFF741FD0022084B0191E5
:100AB0000090FFF75BFC03910290FFF74BFD05B23E
:100AC000002E02D0284605B0F0BD684200B2FAE719
:100AD0000000E43F00B587B000BF0F48406B022123
:100AE00008430D4948630846406B022108400190C5
:100AF00000BF00BFC80202900120039004900020B4
:100B0000059002A9054800F027F900F06DF8FFF7FD
:100B100077FF07B000BD0000001002400004005045
:100B200000B585B014216846FFF7ECFB002001906A
:100B3000012000030090002003906946024800F065
:100B40000BF905B000BD00000004005000B585B0F1
:100B500014216846FFF7D6FB0120019000030090A6
:100B6000002003906946024800F0F6F805B000BD89
:100B70000004005010B5FFF7E9FF0022012109032E
:100B80000F4800F0E2F9022004F032FD01221103C7
:100B90000B4800F0DAF9FFF7C3FF0C2004F028FD42
:100BA00001210903064800F0BFF9002801D0012403
:100BB00000E00024322004F01BFD204610BD0000A0
:100BC0000004005070B50026012508E0FFF7D2FFB1
:100BD0000446E00171100843C6B2681CC5B2082D76
:100BE000F4DD304670BD000010B5FFF7AFFF002206
:100BF00001210903074800F0A8F9074804F0F8FCB0
:100C000001221103034800F0A0F90F2004F0F0FCCA
:100C100010BD000000040050EE02000010B5FFF708
:100C2000E3FFFFF7EDFECC2000F004F8442000F0D5
:100C300001F810BD70B50446FFF788FF012529E0D3
:100C4000E607F60F6410002E11D0002201210903DF
:100C5000124800F07AF9022004F0CAFC01221103C4
:100C60000E4800F072F93C2004F0C2FC10E00022B3
:100C700001210903094800F068F93C2004F0B8FCA0
:100C800001221103054800F060F9022004F0B0FCD5
:100C9000681CC5B2082DD3DD70BD000000040050F3
:100CA0007047000070B50446002500BF00212420D5
:100CB000015500BF00BF005D012801D1022070BDB9
:100CC00001212420015500BF2520005D022803D00A
:100CD0000420E06301253AE0206800680E21884383
:100CE00021680860206800684008400021680860AA
:100CF000606C0068FF2101318843616C0860154811
:100D000040681C22216C114001228A401043114985
:100D10004860A16CE06C4860206D002809D0206D0F
:100D20000068FF2101318843216D0860616DA06D6D
:100D3000486001212520015500BF002124200155D4
:100D400000BFA06B002802D02046A16B8847284630
:100D5000B5E700000000024070B503460022D5E070
:100D6000012696400C683440002C71D04D68022D4D
:100D700002D04D68122D15D1D508AE001D46203584
:100D8000A8595507EE0E0F25B5400646AE4330462E
:100D90005607F60E0D69B5402843D508AD001E462E
:100DA00020367051186856000325B5400646AE43FC
:100DB00030460D79AD07AD0F5600B5402843186099
:100DC0004D68012D08D04D68022D05D04D68112DBC
:100DD00002D04D68122D18D1986856000325B540F1
:100DE0000646AE4330465600CD68B540284398606D
:100DF0005868012595400646AE43304610264D689A
:100E000035402D09954028435860D8685600032581
:100E1000B5400646AE43304656008D68B54028437F
:100E2000D860012636074D683540B5426DD13A4D40
:100E30009608B600A8599507EE0E0F25B540064650
:100E4000AE43304605252D07AB4202D1002510E008
:100E50005BE0324DAB4201D101250AE0304DAB429F
:100E600001D1022505E02F4DAB4201D1032500E061
:100E700005259607F60EB5402843274D9608B6007F
:100E8000A851254D203528680546A543284601264A
:100E900036044D683540B54202D105462543284603
:100EA0001D4D2035286068680546A5432846012663
:100EB00076044D683540B54202D1054625432846A3
:100EC000154D20356860144D603D28680546A543E2
:100ED0002846012636054D683540B54202D1054603
:100EE000254328460C4D603D286068680546A543AB
:100EF0002846012676054D683540B54202D10546A3
:100F000025432846044D603D6860521C0D68D5405D
:100F1000002D00D024E770BD60180240000400508E
:100F200000080050000C0050024613690B40002BD3
:100F300001D0012000E00020704742690A40002AE9
:100F400001D0816200E081617047002A01D0816197
:100F500000E08162704700000148006870470000AF
:100F60000C00002003480068034909684018014943
:100F7000086070470C0000201400002010B5002409
:100F800008480068FF210131084306490860002035
:100F900000F00AF8002801D0012401E000F034F844
:100FA000204610BD00200240F8B504460025134835
:100FB000006800281ED0114801687D20C000FFF79E
:100FC000FFF8074639460E480068FFF7F9F806466D
:100FD00000F0D0FC00280BD1042C07D200222146BF
:100FE000401E00F041F80748046004E0012502E0DB
:100FF000012500E001252846F8BD0000140000206E
:10100000180000201000002008B500BF0E4800683E
:10101000012108430C49086008460068C007C00F5A
:10102000009000BF00BF00BF07484038C06B890573
:10103000084305494039C8630846C06B09040840A5
:10104000009000BF00BF08BD4010024001460029CB
:1010500005DBCB06DB0E01229A40024B1A6000BF73
:101060007047000000E100E070B504460D461646EA
:101070002946204601F09CFE70BD000070B5044674
:101080001148006803214902884320430E49086043
:101090004815844216D10D49096806225143084675
:1010A0000B49FFF78DF8451C05E0002D01D06D1EA2
:1010B00001E0032070BD0448406901218902084015
:1010C0008842F2D00020F5E70070004018000020B0
:1010D00040420F0070B504460D46002C01D101209E
:1010E00070BD6B4800684007400FA84218D268489E
:1010F0000068C008C000284365490860FFF72CFF5E
:10110000064607E0FFF728FF801B6249884201D9A5
:101110000320E5E75E4800684007400FA842F1D190
:10112000022120680840022815D1042120680840C7
:10113000042807D1584880680721090388434018CC
:1011400055498860544880680F2109028843A16886
:101150000843514988602078C007C00F002854D048
:101160006068012808D14C48006801214904084002
:1011700000282ED10120B3E76068022808D1464834
:101180000068012149060840002822D10120A7E774
:101190006068002808D140480068012189020840A1
:1011A000002816D101209BE76068032808D13A483F
:1011B0004030006A0221084000280AD101208FE750
:1011C00035484030C06902210840002801D1012083
:1011D00086E731488068C008C000616808432E492E
:1011E0008860FFF7B9FE064607E0FFF7B5FE801BF3
:1011F0002849884201D9032072E7274880683821AE
:1012000008406168C9008842EFD121480068400762
:10121000400FA84218D91E480068C008C0002843E3
:101220001B490860FFF798FE064607E0FFF794FEAB
:10123000801B1849884201D9032051E714480068EF
:101240004007400FA842F1D104212068084004283B
:1012500008D111488068072109038843E1680843E1
:101260000D49886000F03AF80B4989680F22120294
:101270001140090A8900094A515CC906C90EC840D3
:101280000749086007480068FFF78EFE28E700005E
:10129000002002408813000000100240806D00080A
:1012A000180000201000002001480068704700006E
:1012B0001800002000B5FFF7F7FF064989680722EC
:1012C00012031140090B8900034A515CC906C90E7B
:1012D000C84000BD00100240C06D0008FEB5354892
:1012E00080683821084000280DD132480068090282
:1012F0000840C10A0120884000902F480099FEF75D
:101300005FFF044654E02B488068382108400828D5
:1013100001D12A4C4CE02748806838210840102829
:1013200034D12448C0688607B60F2248C0687021AF
:1013300008400009401C0190022E0FD0032E0CD152
:101340001E480199FEF73CFF1A49C9687F22120224
:101350001140090A484305460DE000BF16480199AF
:10136000FEF72EFF1349C9687F2212021140090AB5
:101370004843054600BF00BF0E48C068400F471CE9
:1013800039462846FEF71CFF044611E009488068EC
:1013900038210840202801D1840209E005488068EE
:1013A00038210840182802D17D24240200E00024BE
:1013B0002046FEBD001002400024F40000127A0016
:1013C000FEB50446002C01D10120FEBD2078C007E7
:1013D000C00F00286FD0F748876838210F40C068D9
:1013E0008607B60F102F01D1032E01D0082F0BD185
:1013F000F048006801214904084000285BD060687B
:10140000002858D10120E0E700BF012109046068ED
:10141000884205D1E74800680843E649086021E0B2
:1014200005210904606888420ED1E2480068012164
:1014300089040843DF49086008460068012109045F
:101440000843DC4908600DE0DA480068012109041E
:101450008843D84908600846006801218904884308
:10146000D449086000BF6068002812D0FFF774FDFF
:10147000054606E0FFF770FD401B642801D90320F4
:10148000A3E7CC4800680121490408400028F1D0B6
:1014900011E0FFF761FD054606E0FFF75DFD401B2B
:1014A000642801D9032090E7C2480068012149045B
:1014B00008400028F1D1022120680840022873D199
:1014C000BC488068382108400746BA48C06886078B
:1014D000B60F102F01D1022E01D0002F36D1B54802
:1014E0000068012189020840002804D0E068002833
:1014F00001D1012069E7AF4840687F210902884394
:10150000616909020843AB494860002F16D10846BB
:1015100000680721C902884321690843A54908607A
:10152000084600680722D2021040C20A01209040FB
:101530000146A148FEF744FEA0490860A0480068A3
:10154000FFF732FD002849D001203EE7E06800287F
:101550002BD0984800680721C902884321690843B5
:101560009449086008460068891508439149086055
:10157000FFF7F2FC054606E0FFF7EEFC401B0228F1
:1015800001D9032021E78B48006801218902084026
:101590000028F1D0874840687F21090288436169AB
:1015A000090208438349486018E082480068FF2127
:1015B000013188437F490860FFF7CEFC054606E00D
:1015C000FFF7CAFC401B022801D90320FDE6794839
:1015D00000680121890208400028F1D10821206813
:1015E0000840082849D173488068382108401828E5
:1015F0000BD170484030006A0221084000283CD0DE
:10160000A069002839D10120DFE6A06900281AD09E
:1016100068484030006A0121084366494031086249
:10162000FFF79AFC054606E0FFF796FC401B0228F0
:1016300001D90320C9E65F484030006A0221084012
:101640000028F1D019E05B484030006A40084000B3
:10165000584940310862FFF77FFC054606E0FFF776
:101660007BFC401B022801D90320AEE651484030E4
:10167000006A022108400028F1D1042120680840B6
:1016800004287CD1002001904A4880683821084015
:1016900020280BD147484030C0690221084000286B
:1016A0006ED0A06800286BD101208EE64148C06B47
:1016B000010F01208843002810D000BF3D48C06BB7
:1016C0000121090708433B49C8630846C06B090468
:1016D0000840009000BF00BF012001903948006819
:1016E000FF2101310840002816D136480068084320
:1016F00034490860FFF730FC054606E0FFF72CFC94
:10170000401B022801D903205FE62E480068FF2114
:10171000013108400028F1D000BFA068012808D19D
:1017200024484030C0690121084322494031C86142
:1017300020E0A06805280FD11E484030C069042170
:1017400008431C494031C8610846C069012108436B
:1017500018494031C8610DE016484030C069410861
:10176000490014484030C161C069042188431149CF
:101770004031C86100BFA068002816D001E040E0F9
:101780003EE0FFF7E9FB054607E0FFF7E5FB401BFE
:101790000D49884201D9032017E606484030C06948
:1017A000022108400028F0D01EE0FFF7D5FB0546D7
:1017B00014E00000001002400024F4001800002093
:1017C000100000200070004088130000FFF7C4FBE9
:1017D000401B6449884201D90320F6E56248C0698C
:1017E000022108400028F1D10198012808D15E4863
:1017F0004038C06B0121090788435B494039C86301
:1018000000BFE06900285AD0574840388068382126
:10181000084010287ED0E069022851D15248403853
:1018200000680121090688434F4940390860FFF7E5
:1018300093FB054606E0FFF78FFB401B022801D90A
:101840000320C2E5484840380068012149060840A5
:101850000028F0D1616A206A0843A16A090208439E
:10186000E16A0843216B08433F494039C9683F4A50
:10187000114008433C494039C860084600680121CE
:10188000090608433849403908600846C068090419
:10189000084335494039C860FFF75EFB054606E05E
:1018A000FFF75AFB401B022801D903208DE52E4883
:1018B000403800680121490608400028F0D04EE079
:1018C00029484038006801210906884326494039E3
:1018D00008600846C06880088000C8600846C06884
:1018E0002349084020494039C860FFF735FB0546C9
:1018F00007E0FFF731FB401B022802D9032064E513
:1019000008E01948403800680121490608400028CD
:10191000EFD124E0E069012800D156E512484038B3
:10192000C668B107890F206A814216D17020304005
:10193000616A884211D17F2000023040A16A090209
:1019400088420AD11F2040043040E16A884204D115
:10195000710F4907206B814201D0012035E500203D
:1019600033E5000088130000401002408C80C11F46
:10197000FFFFFEEF70B504462546681E0949884200
:1019800001D901200CE0681E074948610321081FA6
:1019900001F00EFA00200449886107200861002048
:1019A00070BD0000FFFFFF0000E000E0014600BF47
:1019B0007C20405C012801D10220704701237C205B
:1019C000435400BF242380204350086802680868FD
:1019D0000068400840000B68186001235B07104650
:1019E0009843024600204866086802602023802051
:1019F000435000BF00237C20435400BF0020DCE79D
:101A0000704770B504460D4600BF7C20005D01287C
:101A100001D1022070BD01217C20015500BF24218D
:101A20008020015120680668206800684008400056
:101A30002168086020688068072149068843284398
:101A400021688860204600F0E7FB206806602021BE
:101A50008020015100BF00217C20015500BF0020E3
:101A6000D8E770B504460D4600BF7C20005D012814
:101A700001D1022070BD01217C20015500BF24212D
:101A800080200151206806682068006840084000F6
:101A90002168086020688068C000C0082843216869
:101AA0008860204600F0B8FB206806602021802076
:101AB000015100BF00217C20015500BF0020D9E763
:101AC0007047704770470000FEB504462068C5693E
:101AD00020680668206887682807000F0190019831
:101AE000002813D12020284000280FD0202030408B
:101AF000002804D1012000073840002806D0E06EFD
:101B0000002802D02046E16E8847FEBD01980028DB
:101B10007ED07A483840002804D1FF202130304060
:101B20000028F5D0E807C00F00280DD0FF200130B5
:101B30003040002808D00120216808628820005920
:101B400001210843882108510220284000280CD098
:101B5000F807C00F002808D00220216808628820FA
:101B600000590421084388210851042028400028F6
:101B70000CD0F807C00F002808D0042021680862A4
:101B80008820005902210843882108510820284054
:101B9000002810D020203040002803D1574838407A
:101BA000002808D0082021680862882000590821F0
:101BB0000843882108518820005900284DD0202052
:101BC000284000280ED020203040002804D10120D9
:101BD00000073840002805D0E06E002802D02046DB
:101BE000E16E884788200059009020688068402175
:101BF0000840402804D0082100980840002826D03A
:101C0000204600F009FC206880684021084000E080
:101C100024E0402817D120688068884321688860C4
:101C2000A06F00280BD03648A16F8863A06FFFF724
:101C300039F8002811D0A06F816B88470DE020464D
:101C4000FFF740FF09E02046FFF73CFF05E0204694
:101C5000FFF738FF00218820015156E701200005D9
:101C6000284000280CD0012080053840002807D0EB
:101C700001200005216808622046FFF722FF44E7A3
:101C80008020284000280FD080203040002804D138
:101C90000120C0053840002806D0206F002802D05F
:101CA0002046216F884730E740202840002807D091
:101CB00040203040002803D0204600F0C3FB24E73A
:101CC0000120C0052840002808D0012080073040AE
:101CD000002803D02046FFF7F3FE16E70120000698
:101CE0002840002807D0F00FC007002803D0204666
:101CF000FFF786FE09E700BF07E7000001000010BC
:101D00000124000810B50446002C01D1012010BDAB
:101D1000A069002800D000E000BF80200059002802
:101D200005D100217C200155204600F02DF824210A
:101D30008020015120680068400840002168086048
:101D4000204600F091FB012800D1E0E7A06A0028BE
:101D500002D0204600F0A2FA206840680921C9029A
:101D6000884321684860206880682A218843216868
:101D700088602068006801210843216808602046C7
:101D800000F004FBC3E7000010B586B00446142140
:101D900001A8FEF7B7FA3C492068884236D100BF57
:101DA0003A48006801218903084338490860084619
:101DB0000068012189030840009000BF00BF00BFF8
:101DC00032484038406B0421084330494039486369
:101DD0000846406B04210840009000BF00BF30203F
:101DE0000190022002900120039000200490012025
:101DF000059001A92648FEF7AFFF002211461B20DF
:101E0000FFF732F91B20FFF721F93BE02149206859
:101E1000884237D100BF1D484038C06B01214904BA
:101E200008431A494039C8630846C06B0121490478
:101E30000840009000BF00BF00BF14484038406B0E
:101E4000012108431149403948630846406BC007E7
:101E5000C00F009000BF00BF0C2001900220029034
:101E60000020039004900120059001A9052000079F
:101E7000FEF772FF002211461C20FFF7F5F81C2028
:101E8000FFF7E4F806B010BD0038014040100240F2
:101E90000008005000440040FFB583B004460D46E2
:101EA000174680200059202878D1002D01D0002F1E
:101EB00002D1012007B0F0BD01210903A0688842CA
:101EC00008D12069002805D1E807C00F002801D0FB
:101ED0000120EFE700BF7C20005D012801D1022036
:101EE000E8E701217C20015500BF00218820015135
:101EF000212180200151FFF72FF801905420075332
:101F00005620075301210903A068884205D12069A2
:101F1000002802D10026029502E02E460020029001
:101F200021E006980090002280212046019B00F0CD
:101F3000EBFD002801D00320BCE7002E09D1029858
:101F40000088C005C00D216888620298801C02903C
:101F500003E0307821688862761C5620005B401EC2
:101F600081B2562001535620005B0028D9D1069833
:101F70000090002240212046019B00F0C5FD002872
:101F800001D0032096E720218020015100BF0021CD
:101F90007C20015500BF00208CE7FFE7022089E785
:101FA0007047000010B51A481A490860E120400245
:101FB0004860002117488160C16001610C214161C6
:101FC00000218161C1610162416200201149886282
:101FD0000846FFF797FE002801D0FEF761FE0021BA
:101FE0000C48FFF73EFD002801D0FEF759FE002106
:101FF0000848FFF706FD002801D0FEF751FE05480E
:10200000FFF7D4FC002801D0FEF74AFE10BD000007
:1020100000380140900F002010B51A481A49086096
:10202000E12040024860002117488160C1600161E1
:102030000C21416100218161C16101624162002086
:10204000114988620846FFF75DFE002801D0FEF7BF
:1020500027FE00210C48FFF704FD002801D0FEF701
:102060001FFE00210848FFF7CCFC002801D0FEF736
:1020700017FE0548FFF79AFC002801D0FEF710FE76
:1020800010BD0000004400401C1000207047704745
:1020900010B503F0CFFAFEF765FF04F059F803F02E
:1020A000D9FA10BD00B591B0342104A8FEF72AF981
:1020B0000020009001900290039001204002FEF762
:1020C000DDFF02200490C00107900020089040200E
:1020D000099002200B9002210C9100210D91082102
:1020E0000E9101040F910107109104A8FFF768F900
:1020F000002801D0FEF7D4FD0720009002200190B7
:1021000000200290039002216846FEF7E3FF0028BA
:1021100001D0FEF7C5FD11B000BD0000FEB5354889
:10212000806838210840102818D004DC002840D0EE
:1021300008283DD104E0182806D0202838D108E02E
:102140002D482E49086044E07D2000022B4908609C
:102150003FE00120C003294908603AE02548C068F3
:102160008707BF0F2348C068702108400009401C42
:102170000190032F05D120480199FEF721F804466C
:1021800004E01F480199FEF71BF804461948C0688F
:102190007F2109020840000A44431648C068400FE6
:1021A000461C31462046FEF70BF81449086010E043
:1021B00000BF104800680721C9020840C10A012079
:1021C000884000900E480099FDF7FAFF0B4908601F
:1021D00000BF00BF074880680F2109020840000ABD
:1021E000800008490D5805480068E8400349086028
:1021F000FEBD00000010024000127A00180000200E
:102200000024F400806D00080120C00601498860A8
:102210007047000000ED00E0F0B585B004461BA15A
:1022200003C9039102901BA103C901910090606E44
:10223000002805D101216A2001536820015322E0C2
:102240000827082204922068806807214906084070
:10225000450E20688068460F6A46915D02AA935D2C
:10226000049A53431846FDF7C1FF81B26A20015317
:102270006A46515D02AA525D7A431046FDF7B6FFE9
:1022800081B26820015305B0F0BD000001010103D7
:10229000070100000804020408010101018DC907BB
:1022A000C90F002908D001684968012252049143EE
:1022B000C26A1143026851600222816A11400229F8
:1022C00007D101684968D2039143026B1143026848
:1022D00051600422816A1140042907D101684968CC
:1022E00012049143426B1143026851600822816AD3
:1022F0001140082907D10168496812039143826B94
:102300001143026851601022816A1140102907D1DF
:102310000168896812029143C26B1143026891609F
:102320002022816A1140202907D1016889681202A0
:102330009143026C1143026891604022816A11400E
:10234000402915D10168496892039143426C1143B9
:102350000268516001221205416C914208D1016866
:102360004968032252059143826C1143026851600F
:102370008022816A1140802907D1016849681203CF
:102380009143C26C114302685160704738B50446EE
:10239000002188200151FEF7DFFD05462068006816
:1023A0000821084008280BD114482B460022890434
:1023B0000090204600F0A8FB002801D0032038BD83
:1023C000206800680421084004280BD10B482B46E4
:1023D000002209050090204600F096FB002801D05D
:1023E0000320ECE72021802001518420015100BF0F
:1023F00000217C20015500BF0020E0E7FFFFFF0126
:1024000070B50546AC6A00215E2001535620015389
:102410002046FFF757FB70BD01680968FF22213293
:1024200091430268116001688968054A1140026899
:102430009160202284210A500021C166704700006B
:10244000FEFFFFEF10B50446206800684021884376
:10245000216808602021802001510020206720464B
:10246000FFF79EFD10BD0000F0B585B004460026C4
:102470000020029001902169A06808436169084327
:10248000E16908430490606E049908430490206851
:102490000068F949084004990843216808602068E9
:1024A0004068032109038843E168084321684860C4
:1024B000A0690490206A0499084304902068806809
:1024C000EE49084004990843216888602068C06A82
:1024D00000090001616A08432168C86200BFE84939
:1024E0002068884217D1E74840698007800F00289C
:1024F00006D0012808D0022804D0032808D105E01E
:10250000002507E0022505E0042503E0082501E099
:10251000102500BF28E0DC492068884217D1D9483F
:1025200040690C210840002806D0042808D008285B
:1025300004D00C2808D105E0002507E0022505E0BD
:10254000042503E0082501E0102500BF0CE0CF4979
:102550002068884201D1002506E0CD4920688842E4
:1025600001D1002500E0102500BF0121C903E06969
:10257000884270D1002D06D0022D53D0042D6BD08F
:10258000082D6AD1ECE0FEF795FE0746606A002848
:1025900001D1012038E0606A012801D1022033E036
:1025A000606A022801D104202EE0606A032801D16C
:1025B000062029E0606A042801D1082024E0606A2E
:1025C000052801D10A201FE0606A062801D10C20ED
:1025D0001AE0606A072801D1102015E0606A082817
:1025E00001D1202010E0606A092801D140200BE0D1
:1025F000606A0A2801D1802006E0606A0B2802D1B7
:10260000FF20013000E0012001463846FDF7D8FDEB
:10261000400061684908401800906168FDF7D0FDEE
:1026200086B2EDE0606A002801D101203BE0606ADB
:10263000012801D1022036E0606A022801D104207D
:1026400031E0606A032801D106202CE0606A04288A
:1026500004D1082027E0E9E033E0CEE0606A0528F5
:1026600001D10A201FE0606A062801D10C201AE07F
:10267000606A072801D1102015E0606A082801D19E
:10268000202010E0606A092801D140200BE0606A38
:102690000A2801D1802006E0606A0B2802D1FF20C1
:1026A000013000E0012001467A48FDF789FD400035
:1026B00061684908401800906168FDF781FD86B2A5
:1026C0009EE0FEF70BFE0746606A002801D101205C
:1026D00038E0606A012801D1022033E0606A0228F4
:1026E00001D104202EE0606A032801D1062029E0F0
:1026F000606A042801D1082024E0606A052801D11D
:102700000A201FE0606A062801D10C201AE0606AE6
:10271000072801D1102015E0606A082801D1202087
:1027200010E0606A092801D140200BE0606A0A28A5
:1027300001D1802006E0606A0B2802D1FF20013021
:1027400000E0012001463846FDF73AFD400061688F
:102750004908401800906168FDF732FD86B24FE0ED
:10276000606A002801D1012038E0606A012801D1A7
:10277000022033E0606A022801D104202EE0606A62
:10278000032801D1062029E0606A042801D108202D
:1027900024E0606A052801D10A201FE0606A06284B
:1027A00001D10C201AE0606A072801D1102015E041
:1027B000606A082801D1202010E0606A092801D150
:1027C00040200BE0606A0A2801D1802006E0606AA0
:1027D0000B2802D1FF20013000E00120014601203A
:1027E000C003FDF7EDFC4000616849084018009007
:1027F0006168FDF7E5FC86B202E00120029000BFAF
:1028000000BF102E0FD3244886420CD822480F3820
:10281000304003903007400F03990843039003981A
:102820002168C86061E1012002905EE1002D06D0C0
:10283000022D65D0042D72D0082D71D1FBE0FEF77A
:1028400039FD0746606A002801D101204BE0606A2B
:10285000012801D1022046E0606A022801D104204B
:1028600041E0606A032801D106203CE0606A042848
:1028700014D1082037E00000F369FFCFFFF4FF1107
:102880000038014040100240004400400048004031
:10289000004C00400024F400FFFF0000606A05289F
:1028A00001D10A201FE0606A062801D10C201AE03D
:1028B000606A072801D1102015E0606A082801D15C
:1028C000202010E0606A092801D140200BE0606AF6
:1028D0000A2801D1802006E0606A0B2802D1FF207F
:1028E000013000E0012001463846FDF769FC6168CF
:1028F0004908401800906168FDF762FC86B2E9E083
:10290000606A002801D101203AE0606A012801D103
:10291000022035E0606A022803D1042030E03CE068
:10292000D5E0606A032801D1062029E0606A042806
:1029300001D1082024E0606A052801D10A201FE0A7
:10294000606A062801D10C201AE0606A072801D1CC
:10295000102015E0606A082801D1202010E0606A8C
:10296000092801D140200BE0606A0A2801D18020AB
:1029700006E0606A0B2802D1FF20013000E0012050
:1029800001465F48FDF71CFC61684908401800904B
:102990006168FDF715FC86B29CE0FEF79FFC0746D8
:1029A000606A002801D1012038E0606A012801D165
:1029B000022033E0606A022801D104202EE0606A20
:1029C000032801D1062029E0606A042801D10820EB
:1029D00024E0606A052801D10A201FE0606A062809
:1029E00001D10C201AE0606A072801D1102015E0FF
:1029F000606A082801D1202010E0606A092801D10E
:102A000040200BE0606A0A2801D1802006E0606A5D
:102A10000B2802D1FF20013000E00120014638469A
:102A2000FDF7CEFB61684908401800906168FDF72A
:102A3000C7FB86B24EE0606A002801D1012038E071
:102A4000606A012801D1022033E0606A022801D1C6
:102A500004202EE0606A032801D1062029E0606A84
:102A6000042801D1082024E0606A052801D10A2049
:102A70001FE0606A062801D10C201AE0606A07286E
:102A800001D1102015E0606A082801D1202010E053
:102A9000606A092801D140200BE0606A0A2801D150
:102AA000802006E0606A0B2802D1FF20013000E0A0
:102AB000012001460120C003FDF782FB616849083F
:102AC000401800906168FDF77BFB86B202E00120B0
:102AD000029000BF00BF102E05D30A48864202D8DC
:102AE0002068C66001E00120029001216A200153A4
:102AF000682001530020E0662067029805B0F0BD11
:102B00000024F400FFFF0000FFB581B004460D462D
:102B100017460A9E24E0701C002821D0FEF71CFAFC
:102B20000499401AB04201D8002E19D120680068DB
:102B3000FF21A1318843216808602068806840082F
:102B400040002168886020218020015184200151AB
:102B500000BF00217C20015500BF032005B0F0BD5F
:102B60002068C0692840A84201D1012000E000206F
:102B7000B842D0D00020F1E710B520480068C06905
:102B8000202108404009002826D01C480068406ADF
:102B90001B4908701B4800680121890288420AD23B
:102BA00017480178174802680068401C154B1860E8
:102BB000154881540CE0002112480160104801784A
:102BC000104802680068401C0E4B18600E48815483
:102BD0000E480A490968086208480068C06910215F
:102BE00008400009002807D010200449096808623D
:102BF0000549074802F06DFE10BD0000900F00204F
:102C00000A000020A8140020A810002025050000BC
:102C1000A40E002010B50248FEF756FF10BD0000BC
:102C20001C10002010B5FFF7BDF90B4800680068C4
:102C300020210843084909680860074800680068BF
:102C400010210843044909680860102002490968F6
:102C50000862FFF7E1F910BD900F00200146481E01
:102C6000084A904201D901207047481E064A506127
:102C7000FF20064AD0700020034A906107201061AF
:102C80000020F1E7FFFFFF0000E000E020ED00E0A2
:102C90000FB410B503A9044B044A029800F0C6F91A
:102CA00010BC08BC04B01847F93F0008B800002069
:102CB0000FB41CB50246002007AC00290BD0491EFA
:102CC00001910092064B6A462146069800F0AEF943
:102CD000009A002111701CBC08BC04B01847000009
:102CE000573800080FB410B504A9074B02AA03987F
:102CF00000F09CF9044602A9002000F0B7FD204630
:102D000010BC08BC04B018476D3800087CB51546E7
:102D1000024600201C4600290BD0491E009201915A
:102D2000044B6A462146284600F080F9009A0021AB
:102D300011707CBD573800082021020C01D01021F1
:102D40001046020A01D010460839020901D0104687
:102D5000091F820801D01046891E420801D0881E32
:102D60007047081A704730B47446641E2578641C96
:102D7000AB4200D21D46635D5B00E31830BC1847D0
:102D8000012249005205D14201D1002801D0002082
:102D90007047012070470000002800D00120014347
:102DA000480002494008081AC00F70470000F07F31
:102DB00010B5002819DB1A4A03231B02D218830816
:102DC0009B00D2588307DC0EFF23A3409A438B0756
:102DD0001B0E8407E40EA3401A43114B0324240264
:102DE0001B198408A4001A5118E00E4A03071B0F90
:102DF000083B9B089B00D2588307DC0EFF23A340AF
:102E00009A438B071B0E8407E40EA3401A43054B1D
:102E10000407240F083CA408A4001A5110BD0000A8
:102E200000E100E01CED00E00146002900D1704700
:102E3000C8B2002804D0C8B2114A105C401CF6E7A2
:102E4000FF2000020840002807D0FF2000020840B1
:102E500000120B4A105C0930E9E7FF20000408402B
:102E6000002807D0FF20000408400014044A105C2A
:102E70001130DCE7080E024A105C1930D7E7000079
:102E8000E06D000802E008C8121F08C1002AFAD14C
:102E900070477047002001E001C1121F002AFBD1DA
:102EA00070470000F0B51FB486B00998089A030D6A
:102EB0000021024314D05148514A181850430514B8
:102EC0001198012810981AD0281A401C00264D4F3E
:102ED0004D49009601910490002812DA444211E015
:102EE0001198012449A3012801D11098C1430698E3
:102EF000119A84600360C26041600BB0F0BD404233
:102F0000E4E70446210500203F4A001C514103919B
:102F1000029012E0E00707D032463B460199009844
:102F2000FDF724FA0191009032463B4610461946BF
:102F3000FDF71CFA06460F466410002CEAD10498EF
:102F4000039B0028029A0999089806DAFDF70EFA01
:102F5000019B009AFDF70AFA05E0FDF76FFA019B65
:102F6000009AFDF76BFA04460E460022284BFDF747
:102F7000F9FC03D80020C043014607E00022254B9E
:102F800020463146FDF71CFCFDF7CCFC102409E07F
:102F9000002C0ADB0A220023FDF730FB079B3032AE
:102FA0001A55641E02460A43F2D11122641C079B83
:102FB000121B1C19119B012B03D0012308430ED1B6
:102FC0000AE0084304D0112010900020119077E708
:102FD0001098151A6D1E0BE01098824202DD002336
:102FE0006D1C03E0824201DA00236D1E002BEED03F
:102FF000069811998260C16030C07EE701FCFFFF36
:10300000104D0000000014400000F03F30000000B0
:103010000000F0430000E03F03490868884201D007
:10302000012070470020FCE774000020FFB597B036
:103030000646002518E2252877D100242746FD49B9
:10304000049400E00443761C32780120203A90403A
:103050000842F7D130782A280ED002223078014673
:103060003039092916D804990A23594330394018B0
:103070001443761C0490F1E7189802C80491189044
:10308000002904DA0120400304434842049002204E
:103090000443761C30782E2814D104200443707821
:1030A000761C2A2809D11898761C80C8189009E047
:1030B0000A214F43303FC719761C3078014630391A
:1030C0000929F5D930786C2810D006DC4C281AD0A4
:1030D00068280ED06A2817D104E0742813D07A2803
:1030E00012D110E00120400504430CE00121090544
:1030F00001E0032109050C437178814203D10120CD
:1031000000052418761C761C3078119066280BD0A8
:1031100013DC58287DD009DC00287BD04528F6D068
:103120004628F4D047281AD1A5E118E0632835D005
:10313000642870D0652812D19DE170286CD008DC1D
:103140006728F1D069287BD06E280DD06F2806D172
:10315000BAE073282ED0752871D0782859D01A9AE1
:10316000199990476D1C7EE16002400F022809D03A
:1031700003280DD00428189801680DD00D60001D9B
:10318000189070E11898EA1701680D604A60F6E738
:10319000189801680D80F2E70D70F0E718986A46FC
:1031A00001781172001D18900020507202A8009042
:1031B000012005E0189802C8189000200091C04333
:1031C00061070DD5002101E00199491C0191B94227
:1031D00012DA8142F8DB009A515C0029F4D10BE04D
:1031E000002101E00199491C01918142FADB019A19
:1031F0000099895C0029F5D1019904981A9B471A16
:1032000021463846199A00F097FA01994019451855
:103210000BE04FE02CE113E04EE0009800990078BD
:10322000491C00911A9A199990470198401E0190E3
:10323000401CF2D1214638461A9B199A10E137E01A
:103240000A200021009001916002410F022907D05D
:10325000189A01CA1892C2179446032908D00AE0A6
:103260001898C01DC108C90005C91891944607E007
:1032700000B2C2179446042902D140B2C1178C464D
:1032800000226146944506DA0A46002140429141F7
:103290008C462D2102E0210504D52B216A461173AD
:1032A000012103E0E10701D02021F7E7029155E079
:1032B0000A200AE0102008E01020009000210420DD
:1032C00004430191082703E00820002101910090A8
:1032D0006002410F022907D0189A01CA18920022F1
:1032E0009446032908D008E01898C01DC108C900F9
:1032F00005C91891944603E080B2042900D1C0B2F8
:1033000000210291210729D51199702906D0009A30
:103310001021019B4A401A4305D00EE040216A4625
:103320001173012108E06146014306D030216A464D
:1033300011731199517302210291009A0821019B86
:103340004A401A430AD16146014301D1610705D5BC
:1033500030216A46117301217F1E0291119958296B
:1033600004D035A10E910DA90D910DE037A1F9E71B
:103370006146019B009AFDF741F90E9B8C469B5CD0
:103380000D9A521E0D92137061460143F0D10D98B3
:1033900005A9081A20300190600703D50120000418
:1033A000844300E001270198874201DD381A00E0DC
:1033B0000020019900904118029809180498401AB9
:1033C0000490E00306D421461A9B199A049800F051
:1033D000B3F94519002706E003A81A9AC05D1999A8
:1033E00090476D1C7F1C02988742F5DBE0030CD5EB
:1033F00021461A9B199A049800F09EF9451904E099
:103400001A9A3020199990476D1C0099481E009017
:103410000029F5DC08E00D980D990078491C0D9104
:103420001A9A199990476D1C0199481E019000291C
:10343000F1DC63E1092801003031323334353637AD
:1034400038396162636465660000000030313233F0
:103450003435363738394142434445460000000090
:1034600000F05AF94519761C3078002800D0E2E5C2
:1034700028461BB0F0BD600700D406271898C01D71
:10348000C108C90048680A680831C30FDB071891F2
:10349000190001D09CA108E0210501D59BA104E001
:1034A000E10701D09AA100E09AA1430011985B08BE
:1034B000109165280CD006DC452809D046281DD07F
:1034C000472841D141E0662818D067283CD13CE02C
:1034D0000021112F01DB112000E0781C01910090E8
:1034E00008A911A8FFF7DEFC139905910021119A94
:1034F00015927F1C12980197009150E00120C0079F
:1035000003900120019008A9009711A8FFF7CAFCB9
:10351000139A149905920022119B00921298159308
:10352000059A0192002901D0104602E0791C40184A
:103530000190381A01D5019804E04042401E0090E5
:10354000781C0190C01B029043E0012F00DA012794
:103550000021112F01DD112000E03846019100907B
:1035600008A911A8FFF79EFC13990591119A002153
:10357000129815920091019721070CD40599B94230
:1035800001DB019900E00191012904DD159A491E32
:10359000515C302906D0B84201DA011D05DA01215B
:1035A000029115E00199491EEDE7002805DC00991C
:1035B000411800910199091A03E0019A411C9142B6
:1035C00000DD01910099401A401C02900120C007C3
:1035D0000390200706D402990198814202DB002063
:1035E000C043029000206946C87707AF01210398C5
:1035F0000337C907884224D0022011902B20129053
:10360000039800280CDA404203902D20129007E026
:103610000A210398FCF7D4FD30317F1E03903970E6
:103620001199481E11900029F2DC03980028EFD16F
:10363000791E129808703078202108404530BF1E4E
:10364000387006A8C01BC01D039010980078002891
:1036500000D00120019941180298C0170918039859
:1036600009180498401A401E0490E00306D421462D
:103670001A9B199A049800F05FF845191098007881
:10368000002803D01A9A199990476D1CE00324D59D
:1036900021461A9B199A049800F04EF845191CE02F
:1036A0000098002807DB00990598884203DD1598EB
:1036B000405C199901E0199930201A9A90470098B6
:1036C0006D1C401C00900298401E0290002804D1FE
:1036D0001A9A2E20199990476D1C0199481E019045
:1036E0000029DDDC05E038781A9A7F1C199990478B
:1036F0006D1C0399481E03900029F4DC21461A9B97
:10370000199A0498ACE600002D0000002B00000080
:103710002000000000000000F8B5044600251E4609
:103720001746880404D405E039462020B0476D1CB4
:10373000641EF9D52846F8BDFFB50446002581B0C2
:103740001E46C80301D5302700E02027880404D591
:1037500005E038460399B0476D1C641EF9D528462C
:1037600005B0F0BDFEB5044615461E460A9F20462C
:1037700014304060006000BF256266620898A06255
:103780000998E0622321E26AA06A02F03DF9E16A49
:10379000A06A4018021F606A0190206A114B0090D5
:1037A000019901F005FFE0613620075535200755E6
:1037B0000020A0630B98E0630B9820640020206336
:1037C00000213420015500202067606700902346C7
:1037D000054A214601902046443002F03FFD00207A
:1037E000FEBD0000215E000881600008FFB581B0C9
:1037F00004460E4617460A986072607A40084000F8
:103800006072E66127620020A06204986062002571
:1038100006E0EA0021461431501801F08FFF6D1CBC
:10382000012DF6DB05B0F0BD10B5024600200146C3
:103830000EE0CC0013461433E0180468436863605C
:103840004468036823604060006000BF481C014674
:103850000129EEDB10BD4A68002A06D00A68531C15
:103860000B6010704868401E486070470A68531C1F
:103870000B601070704700001FB500202023384AED
:1038800038A100903A4801F08AFF3A49086008469A
:103890000068002803D038A001F030FF1FBD1420BD
:1038A0000521012292023C4B009301920291039068
:1038B00000233A4A3AA13E4802F042FB2D490860F3
:1038C00008460068002802D1394802F09FFB142006
:1038D000062101225202374B00930192029103907C
:1038E0000023354A35A1384802F02AFB21490860F7
:1038F00008460068002802D1334802F087FB1420F4
:1039000008218A01314B0093019202910390002318
:103910002F4A30A1324802F013FB164908600846CE
:103920000068002802D12E4802F070FB1420072105
:10393000012292022B4B00930192029103900023EB
:10394000294A2AA12D4802F0FBFA0A4908600846D4
:103950000068002802D1294802F058FB00BF9DE70B
:10396000D40E002075617274315F6D62000000003A
:10397000A40E002000000020696E69742075736138
:10398000727431206D61696C626F78206661696C58
:1039900065642E0A000000003C010020956A0008C2
:1039A00075617274315F7468726561640000000053
:1039B000C4000020B40500206940000867707273DD
:1039C0005F746872656164003C050020A40C0020EF
:1039D000FD4B00086C65645F74687265616400008B
:1039E0002C0C00202C080020CD3D000864733138D9
:1039F0006232305F7468726561640000B407002051
:103A000070B50D4604998C0099008918AA00101809
:103A10002246FCF750FC70BD0A680C30824204D18B
:103A20004868824201D101207047002070470000A1
:103A3000FFB59DB01D98269D1C460E4600287DD0E2
:103A4000007801210300FFF78EF908984132112117
:103A5000090D05792A460421C9A08EE12A460421D0
:103A6000C9A08AE12A460521C9A086E11D9800F077
:103A70005BFE01910090C8A2642102A8FFF718F92B
:103A8000014664285AD22A4602A876E11D9800F021
:103A900018FF3204D20E009202460B46642101A8A0
:103AA00000F098FF010049D42A4601A865E11D985D
:103AB00000F013FF07461D9800F018FF2B46224622
:103AC0003946009600F0EAF921B0F0BD1D9F7869F3
:103AD000002842D179611D9800F07EFD02902A46AF
:103AE0000121AFA0A047002837D1029800280AD0B2
:103AF0001F992346002200953046491C00F09EF98C
:103B000000282AD134E0002078612A460121A5A0AE
:103B100033E101461D9800F02BFD1F9A23460095C6
:103B20003146521CFFF784FF002816D102980199F4
:103B3000401E814214DA2A46012100E014E19AA0D5
:103B4000A047002809D11F9923460122009530463D
:103B5000491C00F073F9002808D00020786103E1C7
:103B600023460022009530461F99F2E70198401C39
:103B7000029901908842CCDBC5E7B00603D58BA043
:103B80000390012002E08AA00390022005901D9876
:103B90000890006A00287DD1089801621D9800F005
:103BA00007FE06902A46012182A0A0470028F2D1F4
:103BB000069800286FD01F992346002200953046B2
:103BC000491C00F03BF90028E5D1F005800F75D0C5
:103BD0001D9800F047FE0290C00000F0A1FF019088
:103BE000002857D00027069800F013FC0146F80083
:103BF000019A00901150069800F0E6FD0146019AE6
:103C000000988018416006991D9800F0E3FD7F1C24
:103C100006900028E7D10298874228D1300601D5C6
:103C2000654B00E0654B082202990198FCF7F2FA17
:103C300000274BE00198F9000818406806900146FB
:103C40001D9800F0A7FD0990002810D00698FCF7F9
:103C50006EFB01462B4622460096069800F01EF9A0
:103C60002A4605990398A047002823D101E0C046C1
:103C7000C0461F9A234600953146521C0998FFF70B
:103C8000D7FE002816D10298401E874217D22A4636
:103C9000012101E065E06AE043A0A047002809D1C6
:103CA0001F992346012200953046491C00F0C6F8B2
:103CB00000280AD0019800F02BFF52E039E023469B
:103CC0000022009530461F99F0E77F1C029887423A
:103CD000B0D3019800F01CFF49E0069800F088FD81
:103CE0001F9A234600953146521CFFF7A1FE00287B
:103CF00037D10498002810D02A4601212AA0A047D5
:103D000000282ED11F992346012200953046491CD8
:103D100000F094F8002824D109E023460022009501
:103D200030461F9900F08AF800281AD11FE0049845
:103D3000069006991D9800F04DFD0490069800F03D
:103D400043FD0746FCF7F3FA01462B462246384668
:103D5000009600F0A3F82A4605990398A04700288A
:103D6000BBD00899002008620020C043ACE6089947
:103D7000002008622A46012111A0A047A4E6000005
:103D80006E756C6C000000007472756500000000B8
:103D900066616C7365000000256C6C6400000000B7
:103DA0005B0000005D0000002C0000003A000000F5
:103DB0003A2000007B000000314D00083D4D000816
:103DC0007D00000010B5FCF74BFE10BD1FB526E0CE
:103DD000FFF7F8FF04B212480078002817D0AC4271
:103DE00015D02046FCF7A2FB00220E4B019100905B
:103DF000FCF724FB03910290FCF7E4FB06463046F7
:103E0000FCF7CCFB0391029002F004FD254621460D
:103E100005A001F073FC7D20C00002F0A7F8D7E7F1
:103E2000070000200000244074656D7065726174A5
:103E3000757265203D2025640D0A0000F8B50E4618
:103E40001C46C10618D0C006C00E0090012110A06B
:103E5000069AA0470027FF43002807D1002508E065
:103E60000C48069A0099A047002801D03846F8BDB2
:103E70006D1CB542F4DB08E0002A06D0800604D4AD
:103E8000012105A0069A9847F8BD0020F8BD000062
:103E90000A000000026F000820000000FFB589B092
:103EA0000F4606460B9B012140A00C9A984700281C
:103EB00075D135463446F71918E0791B02AA284611
:103EC00002F03DFF04006AD002985C2810D022283E
:103ED0000ED020280CDB1299490501D52F2807D0D8
:103EE0001299490601D57F2802DC2546BC42E4D35D
:103EF000B54206D00B9BA91B30460C9A9847002868
:103F00004DD1AC4206D10B9B012128A00C9A9847B9
:103F10000DB0F0BD029A02210D2A23D008DC082A38
:103F20001AD0092A20D00A2A1AD00C2A06D115E064
:103F3000222A0FD02F2A19D05C2A09D00120000490
:103F4000824215DA1AA105A8FEF7CCFE062120E070
:103F500019A01FE019A01DE019A01BE019A019E08D
:103F600019A017E019A015E019A013E019A011E09D
:103F7000101A01031B22890DD2028A1802908005B3
:103F80003721800D8902431813A105A8FEF7AAFE68
:103F90000C2105A80B9B0C9A9847002802D0002002
:103FA000C043B5E725462E46A0E7000022000000EA
:103FB0005C752530345800005C5C00005C22000019
:103FC0005C6200005C6600005C6E00005C720000D9
:103FD0005C7400005C2F00005C75253034585C7503
:103FE000253034580000000013460A4610B501463B
:103FF000184602F0B9FC10BD13B50C46034B012264
:1040000069460348FDF748FF00981CBDFFFF00000C
:104010001C10002010B5002823D0124B0022001FD6
:10402000196803E0814203D80A4649680029F9D19A
:10403000002A0AD01368841A9C4204D10068181818
:104040001060104602E0506000E01860002907D0C0
:1040500002680B1A934203D10B68D21802604968B8
:10406000416010BDBC00002000244CE026480078D0
:10407000002805D125A002F099FB962001F076FFDB
:1040800025480078002805D124A002F08FFB962057
:1040900001F06CFF24480078002805D123A002F02D
:1040A00085FB962001F062FF17480078002817D0A2
:1040B00019480078002813D01B48007800280FD03A
:1040C00000241D480078002805D102F0C9FC962084
:1040D00001F04CFF04E0194801F0B0FF01F01CFDB5
:1040E0002046611CCCB2282809DB0024FF20F530D3
:1040F00013490880114801F0A1FF01F00DFDFF20D8
:10410000F53001F033FFB1E70400002041542B43A8
:1041100050494E3F000000000500002041542B4351
:104120005245473F000000000600002041542B4349
:10413000474154543F000000070000203C05002088
:104140000800002070B5044688184E4A80180246C0
:10415000154646E023785B1965782D02EB18A578A3
:104160002D04EB18E5782D06EE1823799A1863795B
:104170001B029A18A3791B049A18E3791B069B1853
:10418000227A1018627A12021018A27A12041018F9
:10419000E27A12061518701B1C262A46F24142408C
:1041A0001046ED181B1A1A26F2415A4013464019C0
:1041B000ED1A1826F2416A4015461B18401B1026BE
:1041C000F2414240EE1810461B1A0D25EA415340B9
:1041D0008519F21A18461C26F04150405A190C391C
:1041E0000C340C29B6D80B00FEF7BDFD0D4A272470
:1041F000211E1C191613110E0B082900E17A09065D
:104200000818A17A09040818617A09020818217AA5
:104210000818E17909068A18A17909048A186179D0
:1042200009028A1821798A18E17809064D19A178BE
:1042300009044D19617809024D1921784D1912238D
:104240001146D9415040411A152308464D40D841E6
:10425000281A07240346E3414240D21A1024134689
:10426000E3415140C91A1C240B464840E341C01A9F
:1042700042401223D841101A41400822D041081A66
:1042800070BD0000EFBEADDE10B5044600F004F8CE
:10429000606800F03DFC10BD70B505460C35046942
:1042A00008E06668A068241F00F0B7F9204600F017
:1042B0002FFC3446AC42F4D170BDF8B504464068DA
:1042C00000F026FCA1680126491C30468840A16008
:1042D0000090C00000F024FC6060002803D00020A3
:1042E00025460C3509E00020C043F8BDC1006268D6
:1042F0000B1DD5506268401C5550227A31469140C2
:104300008142F3D822696D602D600DE0171F566859
:1043100038680099FBF754FF6068C90041183A1DDE
:10432000204600F0D1F83246AA42EFD10020F8BD75
:10433000FFB581B01F460E46FFF76EFB002813D174
:104340003468251F2868B84206D1284614300399DE
:10435000FBF7F4FF002804D07068A04204D0646822
:10436000EFE7284605B0F0BD0020FBE770B5044636
:104370000D460846FBF7DBFF0B490A680146284655
:10438000FFF7E0FE237A01219940491E014062684F
:10439000C900511803462A462046FFF7C9FF0028E6
:1043A00000D0C06870BD0000B400002070B50446A5
:1043B000002020600320A060402000F0B1FB60607E
:1043C000002806D020460C30206100210123E06047
:1043D00009E00020C04370BDCA006568161DA851E1
:1043E0006568491CA850257A1A46AA408A42F3D823
:1043F000002070BD00B501460C3100F003F800BD8F
:1044000010307047024648680C32904200D10020BC
:104410007047C0687047806870470000FFB5054668
:10442000027A012401682046904081B01F468142F3
:1044300004D32846FFF741FF002840D10298FBF73C
:1044400076FF20490A6801460298FFF77BFE064680
:10445000287A33468440641E34406868E10040187E
:10446000009001462846029AFFF762FF040004D03C
:10447000E06800F0D2F8E7601EE00298FBF757FF13
:104480001521C8421BD2153000F04AFB040016D09B
:10449000266003982061204614300299FBF75CFFE8
:1044A000201DA060E7606060221D2846009900F092
:1044B0000BF82868401C2860002005B0F0BD0020E3
:1044C000C043FAE7B400002070B515460C46064616
:1044D000FFF7A2FA002806D0304629460C3000F03B
:1044E0009EFB656003E02946206800F098FB25608C
:1044F00070BD70B5182000F013FB04000ED0012031
:1045000020700025E56060600820A060202000F099
:1045100007FB2061002802D02046656170BD20465F
:1045200000F0F6FA002070BD70B5104E0D0005D0F9
:10453000002817D00178012914D101E0304670BD60
:10454000A8420FD001220446114600F01FF80028AF
:1045500008D0E168206989004550E068401CE060AF
:10456000002070BD284600F04CF8E7E7FFFFFFFF92
:10457000002805D00278012A02D1C2688A4201D8F7
:10458000002070470069890040587047F8B505461B
:10459000C06817464318AA682869934219D9064685
:1045A00054185000844200D80446A00000F0B8FA25
:1045B00000280ED0AC602861002F0BD0E9680023E2
:1045C000009132461946FFF71BFA304600F0A0FA78
:1045D0002869F8BD3046F8BD002802D001780129CD
:1045E00001D000207047C068704710B5002807D080
:1045F00041684A1C04D0491E416001D100F019F8FD
:1046000010BD10B5002807D041684A1C04D0491ECF
:10461000416001D100F00DF810BD10B5002807D0A1
:1046200041684A1C04D0491E416001D100F001F8E4
:1046300010BD70B500280AD00178002908D00129E2
:104640000BD002291AD0032915D0042913D070BD2C
:1046500004460830FFF718FE0CE00446002504E08D
:10466000A9004058FFF7CDFF6D1CE068A842206903
:10467000F6D805E0204600F04BFA70BD044680688D
:1046800000F046FAF6E738B51C469B0509D4002829
:1046900004D00378012B04D0002B02D00020C043AB
:1046A00038BD0B46009200222146FFF7C1F938BD04
:1046B0003EB505460C46684602F09AF9002801D03E
:1046C00000203EBD23466A4609492846FFF7DBFF26
:1046D000002801D0002405E0684602F09FF900F0B0
:1046E00027FA0446684602F077F920463EBD0000EE
:1046F000E93F0008004870479C000020002804D0D3
:1047000041684A1C01D0491C4160704770B504469D
:104710000D46102000F004FA002804D00321017097
:104720000121021D32C270BD002802D00178032988
:1047300002D00020014670478268C1681046704769
:1047400000487047A400002010B5242000F0E8F9CC
:10475000040004D00E480068002802D004E00020C5
:1047600010BD002000F04AF8002020700120606099
:1047700020460830FFF71AFE002803D0204600F03C
:10478000C7F9ECE70020E0612062204610BD000080
:10479000B400002010B5002904D0002802D002780F
:1047A000002A01D0002010BD0830FFF7DFFD10BD4A
:1047B00010B5002802D00178002901D0002010BDDA
:1047C0000830FFF717FE10BD10B5002801D0FFF725
:1047D00017FE10BD10B5002808D00278002A05D1B8
:1047E000002903D00830FFF70DFE10BD002010BDDA
:1047F00010B5002801D0FFF70EFE10BD38B5084CEB
:10480000216800290AD1002807D1684601F0CAFFB3
:104810000098002801D101200090206038BD0000E0
:10482000B400002070B50E4D140007D0002912D03E
:10483000002810D00278002A0DD101E0284670BD72
:10484000A04208D0C269531CC36123460830FFF759
:10485000E5FD0028F3D02046FFF7D3FEEEE7000089
:10486000FFFFFFFF002802D00178002901D00020BF
:104870007047806870470FB410B5002103AB08463D
:10488000029A00F045F810BC08BC04B0184770B597
:1048900004460D46FEF780FA002805D12046294639
:1048A000FEF76EFA002801D0002070BD102000F045
:1048B00037F90028F9D0042101700121021D32C20C
:1048C00070BD002802D00178042902D000200146E2
:1048D00070478268C16810467047002802D001788E
:1048E000022901D000207047C0687047002802D01C
:1048F0000178022901D0002070478068704710B508
:10490000002202F08DF810BD00487047940000208E
:10491000F0B595B01D4614000E46074629D0207804
:10492000002826D00021384600F0A4F8234632465D
:10493000394601A801F020FF01A800F0B9F914A937
:1049400001A8149500F008FA044600201490002CE9
:104950001BD001A800F0ACF908A8007A0028204676
:1049600014D0FFF742FE0AA210A101A801F0D4FF63
:104970000BE00EA1384600F07DF80FA00023591E71
:1049800000900A46384600F086F8002015B0F0BDC9
:104990004761726261676520616674657220666F47
:1049A000726D617420737472696E67003C666F7219
:1049B0006D61743E000000004E554C4C206F72201B
:1049C000656D70747920666F726D61742073747296
:1049D000696E6700FEB5074608980C46002800D1AE
:1049E000112001930092034620A23846FEF760F999
:1049F0000026F643002811DB0546A0420ED22E21E8
:104A00003846FBF78AFC002812D165213846FBF7AF
:104A100084FC00280CD1E81CA04201D33046FEBD26
:104A20002E20785530217819417000218170AD1CFD
:104A300065213846FBF771FC002814D0461C841C05
:104A400040782D2802D1761C00E0641C20783028A4
:104A5000FBD0B44207D0E01B2A1A21463046FBF7B0
:104A60002AFCA01B2D1A2846FEBD0000252E2A6711
:104A70000000000010B500280AD000225C231A5460
:104A8000531E036043608260002902D000F00CF8DE
:104A900010BD027310BD1CB505AC0194049C0094BC
:104AA00000F020F81CBD000070B504000D4616D0C3
:104AB000002D14D00846FBF73AFC22460C32502851
:104AC00002D22946104608E006464C3E04A1104694
:104AD000FBF742FC2046A9190F30FBF73DFC70BDE7
:104AE0002E2E2E0070B50400059D04980FD05C2674
:104AF000365D002E0BD10EC4024620462B46A02167
:104B000050300C3CFEF702F90020E034E07670BD36
:104B1000002802D00149496808477047AC000020CE
:104B2000002802D00149096808477047AC000020FE
:104B300010B50446FBF7FBFB0146204600F006F8E3
:104B400010BD10B5012201F06BFF10BD70B5064617
:104B50000C46481CFFF7E4FF050007D0224631460B
:104B6000FBF7A9FB00202855284670BD002070BD2A
:104B700000B587B0142102A8FBF7C4FB00BF1E4894
:104B8000406B042108431C4948630846406B0421DC
:104B90000840019000BF00BF00BF1748406B2021B4
:104BA0000843154948630846406B2021084001909E
:104BB00000BF00BF00BF1048406B012108430E49F1
:104BC00048630846406BC007C00F019000BF00BF9C
:104BD0000022202105200007FCF7B7F920200290D1
:104BE0000120039000200490059002A905200007F1
:104BF000FCF7B2F807B000BD0010024005E000F07D
:104C000007F80248008801F0B1F9F8E70800002031
:104C100010B5202105200007FCF78FF910BD486072
:104C200002680A60026851600160704710B5FEF7C3
:104C300023FE002010BD10B5044600F0D7FBFFF79F
:104C4000F5FF10BDF0B50B30C108C900144F0026A8
:104C5000144A0FE003688B420BD38B4205D95C1AD0
:104C60004318456830C3083B00E04368136002C046
:104C700004E0021D10680028ECD13046002803D162
:104C80003868002801D00020F0BD064A06481060B0
:104C9000064A121AD208D20044C001203860D7E771
:104CA000C0000020BC000020A41F0020A02B00207A
:104CB000014610B518311EC908301EC001691838E8
:104CC000002907D002462C321CCA18301EC0002111
:104CD000016010BD426C4168521C4264826C521CDF
:104CE0000123826408E00A2A1DD0426C521C4264EF
:104CF000826C521C491C82640A78202AF3D0092A4B
:104D0000F1D00A2AEFD02C2AEDD03A2AEBD0D3B238
:104D100024221354026C8261426CC261826C491C71
:104D20000262416010BD026C4364521C0264DFE702
:104D300010B549684068FBF701FB10BD00680968C1
:104D4000884202D20020C0437047884201D001202F
:104D500070470020704700000EB52422135C692BB9
:104D600042D00CDC5B2B1BD004DC492B42D04F2BF8
:104D70000DD155E0622B2BD0662B08D145E06E2B70
:104D800023D06F2B53D0732B0DD07B2B05D02AA2B1
:104D900032A101F0C1FD00200EBD00F0C1F80EBD32
:104DA00000F066F80EBD02AA009201AB2EA200F040
:104DB00041FA0028F6D002990029019902D0FFF7A4
:104DC000C0FE0EBDFFF79BFD0EBDFFF7B9FC0EBD8B
:104DD0000868021D0A600068002802D0FFF794FDF1
:104DE0000EBDFFF787FC0EBD0868021D0A60006853
:104DF000C11707E00868C01DC208D200104608307D
:104E0000086003CAFFF782FC0EBD0868C01DC20817
:104E1000D20010460830086003CAFFF738FD0EBD07
:104E20000868021D0A600068FFF768FC0EBD08688C
:104E3000021D0A6000680EBD556E6578706563746A
:104E4000656420666F726D6174206368617261636E
:104E50007465722027256327000000003C666F728E
:104E60006D61743E00000000737472696E6700002B
:104E7000F8B50F460546FFF73CFB06462846FFF708
:104E800017FF2C4620341CE0002814D03946284651
:104E9000FFF762FF010009D03046FFF745FB00280D
:104EA0000CD00AA210A1284601F036FD3046FFF7CB
:104EB0009CFB0020F8BD0FA216A1F4E72846FFF7DF
:104EC000F7FE20795D28DFD13046F8BD556E61626E
:104ED0006C6520746F20617070656E6420746F2043
:104EE00061727261790000003C696E7465726E6176
:104EF0006C3E0000556E657870656374656420656E
:104F00006E64206F6620666F726D617420737472B8
:104F1000696E67003C666F726D61743E0000000050
:104F2000F0B585B00E460546FFF70EFC0190284609
:104F3000FFF7BEFE2C46203446E0002B04D0732B36
:104F400008D024A22BA127E02DA22AA1284601F0F7
:104F5000E3FC2BE002A8009004AB31A231462846C6
:104F600000F068F9070021D02846FFF7A1FE31467E
:104F70002846FFF7F1FE020012D039460198FFF7EC
:104F800051FC0028029817D0002802D03846FFF7BD
:104F9000BFFD3B4625A22BA1284601F0BDFC05E044
:104FA0000298002802D03846FFF7B2FD0198FFF7BB
:104FB0001CFB002005B0F0BD002802D03846FFF7EA
:104FC000A7FD2846FFF774FE23797D2BB5D1019804
:104FD000F0E70000457870656374656420666F7261
:104FE0006D6174202773272C20676F742027256339
:104FF000270000003C666F726D61743E0000000087
:10500000556E657870656374656420656E64206FA5
:105010006620666F726D617420737472696E6700CA
:105020006F626A656374206B65790000556E61621A
:105030006C6520746F20616464206B657920222583
:10504000732200003C696E7465726E616C3E0000F4
:10505000014610B518311EC928301EC030381EC890
:105060001EC010BDFFB58BB004461546169E1598A0
:1050700004901498029040203040002801D05C48F1
:1050800000E05C48039010203040002801D07608F2
:105090007600F007C00F002801D0302000E020206B
:1050A0000A900020099002203040002812D0002DE4
:1050B00003DA2D2009906D420CE0042030400028D6
:1050C00002D02B20099005E008203040002801D0B4
:1050D000202009900027002D05D1302238467F1C62
:1050E00005A90A541DE01AE00E98019001980A28BB
:1050F0000AD128460A21FBF763F8009128460A21C5
:10510000FBF75EF8054603E02807000F00902D0925
:10511000009803990A5C38467F1C05A90A54002DA3
:10512000E2D11598874200DD159715990298401A2B
:10513000029011203040002814D10998002805D091
:105140000298002802DD0298401E029005E00C98AB
:10515000844201D220202070641C0298411E0291DA
:105160000028F4DC0998002808D00C98844201D269
:10517000099820700298401E0290641C1020304054
:1051800000280BD105E00C98844201D20A982070C7
:10519000641C0298411E02910028F4DC05E00C9882
:1051A000844201D230202070641C1598411E159154
:1051B000B842F4DC06E00C98844202D205A8C05D37
:1051C0002070641C38467F1E002802DD04980028E9
:1051D000F1D105E00C98844201D220202070641C9B
:1051E0000298411E02910028F4DC20460FB0F0BD69
:1051F000F16E0008E06E000830B5CBB004462346DF
:10520000074A08A16846FDF76DFD684600F076FD87
:1052100085B22A466946064801F0E6FC4BB030BD2F
:10522000246F000825732C25642C300D0A00000023
:10523000900F0020FFB583B01F460C460398FFF780
:1052400037FD039D039820352E79FFF701FF232EAC
:1052500027D0252E25D02B2E23D02068011D21609C
:105260000468002C10D02046FBF761F80546014683
:10527000204601F045FD00280CD03D600C9800212F
:105280000160204607B0F0BD2DA233A1039801F0C4
:1052900043FB53E032A230A1059B039801F03CFB95
:1052A0004CE0684601F0A4FB2068011D21600668FF
:1052B000002E2CD00398FFF7FBFC2879232829D057
:1052C000252827D00398FFF7C3FE3046FBF72FF8B9
:1052D00002463146684601F047FB401C1FD0039848
:1052E000FFF7E6FC28792B28DED00398FFF7B0FE05
:1052F0000199009801F004FD002816D0019838604B
:105300000C9801210160684601F083FBBAE70CA20A
:1053100011A106E02068011D21600268D9E715A2ED
:1053200018A1039801F0F8FA05E00DA20AA1059B67
:10533000039801F0F1FA684601F04EFB0020A1E766
:105340004E554C4C20737472696E6720617267759C
:105350006D656E74000000003C617267733E000072
:10536000496E76616C6964205554462D382025734A
:10537000000000004F7574206F66206D656D6F72C0
:10538000790000003C696E7465726E616C3E0000CD
:105390007FB50A4C14200A210122D202084B009347
:1053A0000192029103900023064A07A1204600F0D3
:1053B000C7FD0546204600F029FE7FBDB01C002039
:1053C000B0140020374C00086D61696E00000000C9
:1053D00010B5044C02E020688047241D0248844236
:1053E000F9D310BDBC6F0008C06F000810B5044CA5
:1053F00002E020688047241D02488442F9D310BD92
:10540000C06F0008C46F000810B5FAF76DFE0446BF
:1054100004480088401C00B2024908802046FAF780
:1054200067FE10BD6400002010B5FAF75DFE04466B
:105430000D480088401E00B20B4908800846002134
:10544000415E00290CDC0020074908802046FAF75D
:105450004FFE06480068002805D000F05DFB02E022
:105460002046FAF745FE10BD6400002068000020C9
:1054700010B5FCF753FEFBF781FDFCF713FE7D2111
:10548000C90005480068FAF79BFE0446FDF7E6FBF5
:10549000FFF79EFF10BD00001800002070B5044605
:1054A000204600F02BFC85B2034B2A4621460348D8
:1054B000FCF7F2FC70BD0000FFFF0F001C10002085
:1054C000044613A0E16900F019F915A0A16900F0E4
:1054D00015F917A0616900F011F919A0216900F010
:1054E0000DF91BA0E16800F009F91DA0A16800F00A
:1054F00005F91FA0616800F001F921A0216800F002
:10550000FDF82348016823A000F0F8F800BFFEE78B
:105510007073723A203078253038780A0000000025
:105520002070633A203078253038780A0000000077
:10553000206C723A203078253038780A000000005C
:105540007231323A203078253038780A0000000075
:105550007230333A203078253038780A0000000065
:105560007230323A203078253038780A0000000056
:105570007230313A203078253038780A0000000047
:105580007230303A203078253038780A0000000038
:105590006800002068617264206661756C74206F19
:1055A0006E207468726561643A2025730A000000F9
:1055B000FFB50C46101DC008C0004038014600254C
:1055C00003E00A4EAF00CE516D1C102DF9D30C62D2
:1055D00000264E628E62CE620E634B63009E8E6327
:1055E00001263606CE6304B0F0BD0000EFBEADDE8E
:1055F000FEB506460C488569406901900B490C4888
:105600000068FAF7DDFD009000BF07488469A542F5
:1056100001D9281B02E001984019001B0746009899
:105620007043B842F1D8FEBD00E000E040420F00F8
:105630001800002010B5FAF757FD0446044800781A
:10564000401C034908702046FAF752FD10BD0000C7
:105650002000002010B5FAF747FD04460448007802
:10566000401E034908702046FAF742FD10BD0000B5
:105670002000002070B5044620680546143D2846E9
:1056800000F07EFC002070BDF7B505460C462046B4
:1056900000F0D4FC0298002802D0012822D105E0B5
:1056A00021461431284600F05AF81BE02E680EE01F
:1056B0003746143F3520015DC05D814206DA214640
:1056C00014313846143000F04AF802E03668AE4231
:1056D000EED100BFAE4204D121461431284600F07D
:1056E0003EF800BF00BF0020FEBD10B504462046B6
:1056F000143000F01DF8002010BD00000FB438B5C4
:1057000005A800907F210948009B049A00F056FEEE
:1057100004467F2C00D97F240448FFF7BFFE0020F9
:10572000009038BC08BC04B018470000201E0020C0
:1057300040600060704740600060704740600060FB
:1057400070470268516002680A60016048607047F3
:105750000268516002680A600160486070474268F0
:10576000116042684A6041600860704701460868FD
:10577000884201D1012070470020FCE701460868FB
:10578000884201D1012070470020FCE7026841688F
:105790005160426801681160406000607047F8B570
:1057A00004460D4616461F462A460521204600F0AF
:1057B00079F9069860722046FFF797FFE661278423
:1057C00000206084A084E08420462830FFF7B0FFEA
:1057D0000020F8BDF7B582B004460E46002700F061
:1057E000EDFB0546FAF780FC0190608C002808D19B
:1057F0000498002805D10198FAF77AFCB81E05B084
:10580000F0BD3CE0002028630498002806D10198F0
:10581000FAF76EFC0120C0432863F0E7627A29465C
:1058200020461430FFF730FF049800280CDD00F00C
:1058300089FC074604AA00212846443000F0E0FC19
:105840002846443000F01EFD0198FAF751FC00F0A4
:1058500063F9286B002801D0286BD0E7FAF744FCE5
:105860000190049800280ADD00F06CFCC71B049826
:10587000C01B04900498002801DA00200490608C7A
:105880000028BFD0E18C8900E06940583060E08C8E
:10589000401CE084E08C218C884201DB0020E08405
:1058A000608C401E608420462830FFF75FFF002890
:1058B0000AD120462830FFF7DDFE0198FAF718FCE0
:1058C00000F02AF900209AE70198FAF711FC00206D
:1058D00095E770B504460D4600222946204600F0A3
:1058E00001F870BDF7B582B004460E46002700F0FF
:1058F00065FB0546FAF7F8FB0190608C218C884225
:1059000008D10498002805D10198FAF7F1FBF81E98
:1059100005B0F0BD3BE0002028630498002805D1C5
:105920000198FAF7E5FB0220C043F1E7627A2946C5
:1059300020462830FFF7A8FE049800280CDD00F070
:1059400001FC074604AA00212846443000F058FC18
:105950002846443000F096FC0198FAF7C9FB00F0A5
:10596000DBF8286B002801D0286BD1E7FAF7BCFBE5
:105970000190049800280ADD00F0E4FBC71B04989E
:10598000C01B04900498002801DA00200490608C69
:10599000218C8842BFD0A18C8900E0694650A08C40
:1059A000401CA084A08C218C884201DB0020A084B4
:1059B000608C401C608420461430FFF7D7FE00281E
:1059C0000AD120461430FFF755FE0198FAF790FBF4
:1059D00000F0A2F800209BE70198FAF789FB00206D
:1059E00096E7F0B5034600201C460D4608E02678F1
:1059F0002F78F61B301E00D004E0641C6D1C521E74
:105A0000002AF4D800BFF0BDF7B50546019EF4B2F8
:105A1000042A17D38607B60F002E13D1014626029B
:105A2000264333461E04334304E008C108C108C1BD
:105A300008C1103A102AF8D201E008C1121F042A46
:105A4000FBD20D4601E02C706D1C1646521E002E36
:105A5000F9D1FEBD70B5044600202072FAF744FB70
:105A6000054620460C300268416851604268016872
:105A700011604060006000BF2846FAF739FB70BD36
:105A80000246002108E00801054B185C904202D153
:105A90000801C0187047491C0429F4DB0020F9E70D
:105AA00024000020F7B582B004460D4600262846A3
:105AB000FFF7E6FF0746FFF7A7FC7E6802E03046E7
:105AC0000C383668381D8642F9D1FFF7ADFC8020CE
:105AD0002843207208222046049900F018F9FAF7AA
