:020000040800F2
:1000000080100020CD000008D10A000895010008EA
:1000100000000000000000000000000000000000E0
:10002000000000000000000000000000D30A0008EB
:10003000000000000000000013010008D50A0008BD
:10004000DF00000800000000DF000008DF000008FB
:10005000DF000008DF000008DF000008DF00000804
:1000600000000000DF000008DF000008DF000008DB
:10007000DF000008DF000008DF00000800000000CB
:10008000DF000008DF000008DF000008DF000008D4
:10009000DF000008DF000008DF000008DF000008C4
:1000A000DF000008DF000008DF000008C5100008BE
:1000B000D5100008DF0000080348854600F0BCF8B2
:1000C000004800475D020008801000200448804777
:1000D00004480047FEE7FEE7FEE7FEE7FEE7FEE72F
:1000E000750B0008B9000008EFF3108072B6704776
:1000F00080F3108870472A4A1368012B03D001232C
:100100001360284A1060284A116028482849016075
:100110007047EFF3108272B62148016800291DD0A4
:10012000002101601F48016800290AD0EFF309810E
:10013000203900680160F0C144464D4656465F468E
:10014000F0C1194909680968F0C9F0B4F0C9A046BE
:10015000A946B246BB46F0BC81F3098882F31088F9
:10016000042040420047104908600E490020086002
:100170000B49012008600F480F49026811430160D4
:100180000A480B4901600D480068006880F3088840
:1001900062B67047EFF3098000B501F09BF900BD2E
:1001A00070000020680000206C00002004ED00E0DA
:1001B0000000001020ED00E00000FF0008ED00E06E
:1001C00030B50B46014600202022012409E00D46EF
:1001D000D5409D4205D31D469540491B2546954077
:1001E00040191546521E002DF1DC30BD70B50024BB
:1001F0002546002801DA01244042002901DA0125C0
:100200004942FFF7DDFFAC4200D04042002C00D055
:10021000494270BDD2B201E00270401C491EFBD2BF
:1002200070470022F6E710B513460A460446194601
:10023000FFF7F0FF204610BD064C0125064E05E0F5
:10024000E36807CC2B430C3C98471034B442F7D3F7
:10025000FFF736FFB0220008D022000810B501F0E9
:1002600035FF002010BD7047F8B50146002420314D
:1002700001220A714B79022B03D00421C1630124AE
:100280002DE003681D680E26B5431D6003681D68D8
:100290006D086D001D60436C1D68FF260136B54377
:1002A0001D60104B5D68066C1C273E401746B7402A
:1002B0003D435D60836CC56C5D60036D002B07D0B2
:1002C0001E68FF250135AE431E60436D856D5D6080
:1002D0004A7100220A71816B002900D088472046AC
:1002E000F8BD000000000240F0B5002388E00122C4
:1002F0009A409446144022007ED04C68022C01D0D3
:10030000122C0CD1DC08A40027183C6A5D07ED0E06
:100310000F26AE40B4430E69AE4026433E620568E8
:100320005E000324B4400F79A543BF07BF0FB74059
:100330002F4307604D68012D05D0022D03D0112DEC
:1003400001D0122D0ED18568CF68A543B7402F4349
:10035000876047686546AF430D79ED06ED0F9D4018
:100360003D434560C568A5438C68B4402C43C460D8
:100370004C68E40043D59D08244CAD002F193C6E19
:100380009D07EE0E0F25B540AC4305252D07A8426D
:1003900001D100250FE01E4DA84201D101250AE040
:1003A0001C4DA84201D1022505E01B4DA84201D1F8
:1003B000032500E00525B5402543144C3D66134D4B
:1003C00080352E684F689643FF0300D516432E6094
:1003D0006E684F689643BF0300D516436E6025686C
:1003E0004E689543F60200D51543256065684E6852
:1003F0009543B60202D500E001E0154365605B1C41
:100400000A681446DA4000D071E7F0BD00180240D7
:100410000004005000080050000C005042690A42DD
:1004200001D08162704781617047002A01D08161EB
:100430007047816270470000014880687047000083
:1004400000000020002805DBC106C90E01208840FD
:10045000014908607047000000E100E010B500F0BD
:1004600047FE10BD0648074900688968064A4904E6
:10047000490F8900515CC906C90EC8407047000089
:100480000C000020001002405C21000810B5204C38
:10049000A068204A8006400F16D0A0688006410F51
:1004A000501001290FD0A1688906490F022912D0E6
:1004B000A0688006400F042823D0A0688006400F63
:1004C000032821D0002010BD206801218004400FA6
:1004D0008140104612E0E1688B07E1689B0F4906F6
:1004E000490F491C032B00D01046FFF769FEE16855
:1004F0004904490E4843E168490F491CFFF760FE73
:1005000010BD0120C00310BD7D20000210BD000001
:10051000001002400024F40030B5014660310A7F2B
:10052000012A18D001220A77242302468032144679
:10053000136003681A681D686D086D001D60012353
:100540005B079A4300234366006802602020206016
:100550000B77184630BD022030BD7047F8B5054610
:1005600004466035287F01281DD0012028772422E9
:1005700020468030074602602068066802685208FC
:10058000520002602068826807235B069A430A4390
:100590008260204600F0F6FA20680660202038606D
:1005A00000202877F8BD0220F8BDF8B505460446BE
:1005B0006035287F01281CD001202877242220467E
:1005C00080300746026020680668026852085200C0
:1005D000026020688268D200D2080A438260204606
:1005E00000F0D0FA206806602020386000202877CC
:1005F000F8BD0220F8BD704770477047F8B5036832
:100600000446DA691868996816072546360F80355A
:10061000002E60D0584EFF2721370E400740374349
:1006200072D0D70706D0C70504D501271F62AB6873
:100630003B43AB60930708D5CB0706D0276802235E
:100640003B62AB6804273B43AB60530708D5CB073D
:1006500006D0276804233B62AB6802273B43AB60AC
:10066000130709D520230340334305D02668082308
:100670003362AE681E43AE60AB68002B38D0920682
:100680000AD520221040D2051140084304D0E16E63
:10069000002901D020468847A86821688968490652
:1006A00001D4000729D5204600F03EFB2068816870
:1006B00049061ED5826840218A438260A06F0028C7
:1006C00017D02E498163A06FFFF7CEFD00280FD011
:1006D000A06F816B0BE0960616D5012720263F07F9
:1006E00006400F403E430FD0E16E22E0204688478F
:1006F000F8BD2046FFF781FFF8BD2046FFF77DFFDC
:100700000020A860F8BDFFE7D60208D54E0206D546
:100710000120000518622046FFF76EFFF2E716067B
:100720000AD501278026FF05064039400E4303D035
:10073000216F0029DAD1E5E751060DD541060BD529
:100740001A68204640218A431A602021296000212E
:10075000216700F01DF9D5E7110205D5410003D549
:100760002046FFF748FFCDE7D101CBD50028C9DAF5
:100770002046FFF7F2FEC5E701000010150D000846
:1007800070B5040006D02046803005460068002879
:1007900002D007E0012070BD00217C2001552046D9
:1007A00000F026F8242028602068016849084900E4
:1007B0000160204600F0CCFA0128ECD0A06A0028A5
:1007C00002D0204600F00EFA206841680922D202C9
:1007D00091434160206881682A22914381602068AA
:1007E0000168012211430160204600F061FA70BDEA
:1007F00070B586B0044614216846FFF712FD284DF7
:1008000023680021274802240122AB4220D1254B36
:1008100040331E6895032E431E601B682B400593D2
:10082000456B04231D434563406B029118400590BE
:100830003020039100900194049269461A48FFF712
:1008400053FD002211461B20FFF708FE1B2022E06B
:10085000164DAB4221D1C56B01235B041D43C5631B
:10086000C56B1D400595436B13434363406B029179
:10087000C007C00F05900C20009003910520019443
:10088000049269460007FFF72FFD002211461C2045
:10089000FFF7E4FD1C20FFF7D5FD06B070BD00009A
:1008A00000380140001002400008005000440040A1
:1008B000FFB5074604468037386885B00D462028C6
:1008C00064D1002D0CD00798002809D00120A16820
:1008D0000003814207D12069002804D1E80702D033
:1008E000012009B0F0BD204660300290007F012851
:1008F0004CD00298012101770020B8602120386097
:10090000FFF79AFD0190264640360798B082079877
:10091000F0820120A1680003814202D120690028F1
:1009200002D00395002515E00020039012E000227C
:100930008021204600F092FB002818D1039800285F
:1009400017D02168007888620398401C0390F08AD1
:10095000401EF082F08A019B002808980090E6D1A2
:1009600000224021204600F079FB002808D0032017
:10097000B7E728882168C005C00D8862AD1CE6E78E
:1009800020203860029900200877AAE70220A8E713
:10099000704710B5052020210007FFF73FFD10BD6F
:1009A00070B586B014216846FFF73BFC1348426BD4
:1009B00004210A434263426B0A400592416B2024A2
:1009C00021434163416B21400591416B012529433E
:1009D0004163406B052628403607059000222146DA
:1009E0003046FFF722FD002102910391019500940A
:1009F00069463046FFF778FC06B070BD0010024033
:100A000010B5184816490160E121490241600021F2
:100A10008160C16001618161C16101620C2241623A
:100A200042618162FFF7ACFE002801D0FFF71BFC9A
:100A300000210C48FFF7B9FD002801D0FFF713FC97
:100A400000210848FFF78AFD002801D0FFF70BFCC2
:100A50000448FFF761FD002801D0FFF704FC10BD3A
:100A6000003801407400002010B518481649016094
:100A7000E1214902416000218160C1600161816121
:100A8000C16101620C22416242618162FFF778FE1E
:100A9000002801D0FFF7E7FB00210C48FFF785FD98
:100AA000002801D0FFF7DFFB00210848FFF756FDC3
:100AB000002801D0FFF7D7FB0448FFF72DFD0028E1
:100AC00001D0FFF7D0FB10BD004400400001002022
:100AD0007047704710B500F091FD01F0D3F800F0B9
:100AE00099FD10BD70B51F4DA968382001401E4802
:100AF0001E4C08290DD0430010291BD0182913D0F3
:100B0000202914D0286801218004400F8140184614
:100B100024E02060A8683C21800908401449085C52
:100B20002168C140216070BD7D200002F1E70120F5
:100B3000C003EEE7E9688A07E968920F4906490FA2
:100B4000491C032A00D01846FFF73AFB0146E86823
:100B50004004400E4843E968490F491CFFF730FB49
:100B6000D7E700000010024000127A000C000020BD
:100B70001C21000801200249C0068860704700005F
:100B800000ED00E0F0B513A106C985B00192009117
:100B900012A206CA039202910446416E4034002913
:100BA00015D000688168806809014D0F400F02AEC2
:100BB000315C6F46385CC000FFF702FB6085785DF2
:100BC000715DC000FFF7FCFA208505B0F0BD012083
:100BD0006085F9E701010103070100000804020430
:100BE0000801010110B5018DC90707D001684A68E5
:100BF00001235B049A43C36A1A434A60018D890743
:100C000007D501684A6801231B049A43036B1A4302
:100C10004A60018D490707D501684A6801239B0492
:100C20009A43436B1A434A60018D090707D501684F
:100C30004A680123DB039A43836B1A434A60018DA0
:100C4000C90607D50268916801231B039943C36B4A
:100C500019439160018D890607D501688A680123CF
:100C60005B039A43036C1A438A60018D490612D5CF
:100C700003685A6801210905446C8A4322435A607B
:100C8000426C8A4207D10268516803235B0599438D
:100C9000836C19435160018D090607D501684A68C4
:100CA0000123DB04C06C9A4302434A6010BD00007C
:100CB000FEB50546002680350446AE60FFF7BCFB56
:100CC000019020680068124F000709D501210097A4
:100CD000002249052046019B00F0C0F900280DD1F3
:100CE0002068006840070BD5012100970022890584
:100CF0002046019B00F0B2F9002801D00320FEBD80
:100D0000202028606860603426770020FEBD000047
:100D1000FFFFFF0110B5806A002201464031CA83FF
:100D2000CA82FFF76AFC10BD01680A68FF232133FD
:100D30009A430A6001688A68044B1A408A6020223C
:100D400084210A500021C16670470000FEFFFFEFBA
:100D5000F8B5044680682169E269084361690026A4
:100D600011430843616E014320680268B24B1A4088
:100D70000A43026021684868032212039043E26834
:100D800010434860A169206A226808439168AB4B10
:100D90001940014391602068C16A626A090909012A
:100DA0001143C162A64A2068A64990420CD1486905
:100DB0008007800F23D0012804D002281FD00328E9
:100DC0001CD111E004201AE09F4A90420ED14869DC
:100DD0000C21084013D0042811D0082802D00C2878
:100DE0000CD101E002200AE0082008E0974988427F
:100DF00002D09749884201D1002000E01020012252
:100E0000D203E169D511934B934F91426FD10028E2
:100E100006D0022835D004287AD0082869D17AE093
:100E2000FFF720FB76E0012815D0022815D0032813
:100E300015D0042815D0052815D0062815D0072868
:100E400015D0082815D0092815D00A2815D00B2848
:100E500014D0012512E0022510E004250EE006253D
:100E60000CE008250AE00A2508E00C2506E010251C
:100E700004E0202502E0402500E0802529461046B8
:100E80001BE0606A002815D001282AD002282AD049
:100E900003282AD004282DD005282DD006282DD0AF
:100EA00007282DD008282DD009282DD00A282DD08C
:100EB0000B2800D0012529461846FFF781F9616803
:100EC00040004A088018FFF77BF980B201461039CC
:100ED000B9420ED86049491C01400007400F084341
:100EE0007FE00225E7E70425E5E70625E3E716E0CE
:100EF0000EE08CE00825DEE70A25DCE70C25DAE7C2
:100F00001025D8E72025D6E74025D4E78025D2E76D
:100F1000FFF7BCFA0246606A00289AD083E70028EF
:100F200006D0022835D0042874D0082879D174E07E
:100F3000FFF798FA70E0012815D0022815D0032891
:100F400015D0042815D0052815D0062815D0072857
:100F500015D0082815D0092815D00A2815D00B2837
:100F600014D0012512E0022510E004250EE006252C
:100F70000CE008250AE00A2508E00C2506E010250B
:100F800004E0202502E0402500E0802529461046A7
:100F90001BE0606A002815D0012825D0022825D042
:100FA000032825D0042825D0052825D0062825D0BB
:100FB000072825D0082825D0092825D00A2827D099
:100FC0000B2800D0012529461846FFF7F9F861687B
:100FD0004A088018FFF7F4F880B201461039B94288
:100FE0001FD82168C8601DE00225ECE70425EAE768
:100FF0000625E8E70825E6E70A25E4E70C25E2E709
:101000001025E0E72025DEE74025DCE702E008E0E8
:101010008025D8E7FFF73AFA0246606A0028A0D098
:1010200089E70126204601214030418501850020C5
:10103000E06620673046F8BDF369FFCFFFF4FF118B
:101040000038014040100240004400400048004089
:10105000004C00400024F400EFFF0000FFB581B019
:1010600017460E4604460A9D09E0681C07D0FFF7A4
:10107000E3F90499401AA8420CD8002D0AD0206840
:10108000C169304688431AD00020B842EDD0002014
:1010900005B0F0BD20680168FF22A13291430160D4
:1010A00020688168490849008160202120468030FD
:1010B000016041600020603420770320E8E70120D0
:1010C000E3E7000010B50248FFF798FA10BD0000F2
:1010D0007400002010B50248FFF790FA10BD000020
:1010E0000001002010B5FFF78BFCFFF7BDFC10BD21
:1010F0008307FF22DB0E9A408907090E99400028DA
:1011000008DB830809489B001B18186890430843B4
:10111000186070470007000F0838830804489B00D8
:101120001B18D86990430843D861704700E400E079
:1011300000ED00E0002806D002060D49120E03D093
:10114000C0B2085C401C70470204120E04D00004B8
:10115000000E085C093070470202120E04D0000233
:10116000000E085C11307047000E085C19307047A3
:101170007C21000802E008C8121F08C1002AFAD129
:1011800070477047002001E001C1121F002AFBD107
:101190007047000003480168814201D00120704778
:1011A0000020704754000020FEB5044609A8E0C89E
:1011B000194620461430089BA0612262616260617A
:1011C000E56218462A462321A36200F058FAE16A34
:1011D000A06A0F4B4218121F616A206A00F0F2F9F0
:1011E0002146E06120318E754E750020E763A063D3
:1011F000276420630875206760670090019023468C
:101200002046044A1946443000F0ABFD0020FEBDE4
:10121000A1190008CD1B0008143006C808384A6020
:1012200006C808381160406000607047FFF7B8FBDF
:101230007D24E40004A000F0F9F9FFF7AAFB2046A2
:1012400000F043FCF6E700004C696E7578205254BC
:101250002D5468726561642075436F732D49494947
:101260000D0A000010B500F0CFF8FFF7DFFF10BD4A
:10127000FFB589B00446149E1298139F0190009701
:10128000700601D54A4801E0494811380890F00637
:1012900001D576087600F00701D0302000E020204C
:1012A000079000200690B0070DD5002A03DA2D2004
:1012B0005242069007E0700701D52B2002E030076C
:1012C00001D5202006900025002A04D1302069464F
:1012D000087201250CE00C980A2815D01107090F97
:1012E00012090898415C02A841556D1C002AF2D1F0
:1012F000BD4200DD2F460198112132460A40C01B35
:101300002021002A06D015E010460A21FEF758FFDA
:101310000246E6E7069A002A08D0002806DD401EAD
:1013200004E00A9A944200D22170641C0246401ED6
:10133000002AF6DC069A002A06D00A9A944201D2C4
:10134000069A2270401E641CF20606D509E00A9A2D
:10135000944201D2079A2270641C0246401E002A61
:10136000F5DC30223B467F1EAB420CDD0A9B9C42E3
:1013700000D22270641CF5E70A9B9C4201D2535DA7
:101380002370641C00E002AA2B466D1E002B08DDB2
:10139000009B002BF0D104E00A9A944200D2217005
:1013A000641C0246401E002AF6DC20460DB0F0BD4B
:1013B0008D2200081FB5094C14230121C902039393
:1013C0000A22601A6B4607C30023054A05A120467E
:1013D00000F066FB204600F0C3FB1FBD9009002013
:1013E000651200086D61696E0000000070B5044C64
:1013F000044D02E020688047241DAC42FAD370BD42
:10140000A4220008A822000870B5044C044D02E094
:1014100020688047241DAC42FAD370BDA822000882
:10142000AC22000810B5FEF75FFE034A5188491C44
:101430005180FEF75DFE10BD4800002010B5FEF79C
:1014400053FE0A4C6188491E09B26180002909DCFB
:1014500000216180FEF74CFE6068002801D000F09A
:101460007DF910BDFEF744FE10BD000048000020CD
:1014700010B5FFF737FB0B487D21C9000068FEF768
:101480009FFE0949401E884208D80849084A486119
:10149000FF20D0700020886107200861FFF7A6FFB9
:1014A00010BD00000C000020FFFFFF0000E000E086
:1014B00020ED00E010B5044600F020FA82B2034BA4
:1014C00021460348FFF7F4F910BD0000FFFF0F00AD
:1014D000000100200446C16912A000F0A7F815A081
:1014E000A16900F0A3F817A0616900F09FF819A0A6
:1014F000216900F09BF81BA0E16800F097F81DA09F
:10150000A16800F093F81FA0616800F08FF821A097
:10151000216800F08BF82348016823A000F086F8CA
:10152000FEE700007073723A203078253038780A70
:10153000000000002070633A203078253038780AA7
:1015400000000000206C723A203078253038780A8C
:10155000000000007231323A203078253038780AA5
:10156000000000007230333A203078253038780A95
:10157000000000007230323A203078253038780A86
:10158000000000007230313A203078253038780A77
:10159000000000007230303A203078253038780A68
:1015A000000000004C0000206861726420666175D4
:1015B0006C74206F6E207468726561643A202573C4
:1015C0000A000000F0B50546121DD008C0004038E2
:1015D000094E02460024A700641CD651102CFAD3F1
:1015E0001162002151629162D16230322AC201211E
:1015F0000906C163F0BD0000EFBEADDE10B5FEF719
:1016000073FD034A1178491C1170FEF771FD10BD7E
:101610001400002010B5FEF767FD034A1178491E3B
:101620001170FEF765FD10BD140000200FB410B559
:1016300003AB7F210548029A00F00AFC0348FFF73C
:1016400039FF10BC08BC04B018470000000B002094
:101650000268516002680A60016048607047026871
:10166000516002680A6001604860704706C8083827
:101670004A6006C80838116040600060704730B5A5
:101680000346C9B2042A16D3840714D10D020D43B0
:101690002C042C4305E01C605C609C60103ADC600C
:1016A0001033102AF7D201E010C3121F042AFBD214
:1016B00001E019705B1C521EFBD230BD10B5044610
:1016C00000202072FEF710FD0C3406CC083C4A6066
:1016D00006CC083C116064602460FEF709FD10BD73
:1016E000064A00210B01D35C834202D10801801815
:1016F0007047491C0329F5DB0020704718000020C3
:10170000F8B5044617460E460846FFF7E9FF0546BA
:10171000FFF788FE291D686800E000688842FCD158
:10172000FFF78CFE802006432672082239462046A9
:1017300000F0ECF8FEF7D8FC69680C344C6069687E
:1017400021606C602D1D6560FEF7D2FCF8BD007A4B
:10175000000601D5012070470020704770B5FEF7E4
:10176000C3FC124C05466088002815D1A068FFF71D
:10177000E1FC401E0E4AC100515862681439914282
:101780000AD020700B4861600078002808D010460D
:101790001C301C31FEF7AFFC2846FEF7A9FC70BDDB
:1017A00010461C301C31FEF7A6FCF5E7480000206F
:1017B000800B00201400002010B50446FEF794FCB6
:1017C000024620462030017D09090901491C0175A6
:1017D000407D0A49C000411820464B68143018600B
:1017E0004B68A361486061610548A16B8368194338
:1017F00081601046FEF77CFC10BD0000800B0020CD
:101800004800002010B50446FEF76EFC2146143156
:101810000CC9083953600CC908391A60496009605D
:101820003521095DCA0006498B5851188B4204D1F5
:101830000449A36B8A689A438A60FEF759FC10BD7D
:10184000800B00204800002008B509A0FFF7EEFE3D
:101850000AA0FFF7EBFE13A0032300900122194614
:1018600013A0FFF7E3FE1AA0FFF7E0FE08BD00009B
:101870000A205C207C202F0D0A0000002D205254ED
:10188000202D2020202020546872656164204F7034
:1018900065726174696E672053797374656D0D0AA2
:1018A00000000000417072203135203230323000AB
:1018B000202F207C205C202020202025642E2564E1
:1018C0002E2564206275696C642025730D0A000062
:1018D0002032303036202D203230313920436F70A5
:1018E0007972696768742062792072742D746872E5
:1018F000656164207465616D0D0A0000014600E0B9
:10190000491C0A78002AFBD1081A704710B5002A32
:1019100008D003460C781C70491C5B1C002C05D0B9
:10192000521EF7D110BD19705B1C00E00021521E41
:10193000F9D110BD10B5002209480A4C4280114669
:10194000CB001B195B60491C1B602029F8DB1F21A1
:1019500001704260826002480C304060006010BD3F
:1019600048000020800B002010B5074CA068FFF74E
:10197000E1FB401E0549C0000858143860601C3067
:10198000FEF7F1FB10BD000048000020800B002096
:101990000148406000607047600000207047000010
:1019A00070B513480468FEF79FFB05462046FFF715
:1019B00029FF0421342001552046443000F0C1F9AC
:1019C0002046FFF7C4FE012802D1206F00280AD06C
:1019D000214614310748FFF73BFE2846FEF788FBF7
:1019E000FFF7BCFE70BD2046FFF768FEF5E700007C
:1019F0004C0000205400002000F002F8FCE700003A
:101A000070B523E0FEF770FB0546FFF7C3FB002827
:101A100026D0154801680C4605C90839426005C939
:101A2000083910604960143C0960FFF7FBFC216F26
:101A3000002901D0204688472046FFF788FE01286C
:101A400009D0FFF7FBFC2846FEF752FBFFF7A2FB8D
:101A50000028D7D170BD2046FFF730FEFFF7EEFC1F
:101A60002846FEF745FB70BD540000201FB508480E
:101A700020231F2280216C460FC40023054A06A1A3
:101A8000783800F00DF80248783800F069F81FBD8A
:101A9000800A0020F91900087469646C6500000070
:101AA000FFB585B00FADE0CD0C460A460121059883
:101AB000FFF726FE0E986A46E1C22146089B079A68
:101AC0000598FFF771FB09B0F0BD10B500F0BCF848
:101AD00000F026F810BD70B504462030007D0007E8
:101AE000000F022802D00020C04370BDFEF7FCFAB0
:101AF000054620461430FFF7B9FD2046443000F07B
:101B00008FF92846FEF7F4FA2046FFF755FE00202D
:101B100070BD000001480068704700004C000020C4
:101B2000F1B5FEF7E1FA05460C480468204600F0DE
:101B30002DF8204644306A460021064600F0E8F8B9
:101B4000304600F025F92846FEF7D2FAFFF706FEE8
:101B5000206B801C00D120630020F8BD4C000020C9
:101B600010B5014620318A7D01234A759340022237
:101B700083630A75FFF7AFFF03480068002801D0B0
:101B8000FFF7ECFD002010BD4C00002070B50546AD
:101B900004462035287D0007000F012802D00020D0
:101BA000C04370BDFEF7A0FA0646287D000900017B
:101BB000801C28752046FFF725FE2046443000F0A3
:101BC0002FF93046FEF794FA002070BD10B5044698
:101BD0000120C043206320461430FFF747FD204614
:101BE000FFF7EAFDFFF7BAFD10BD000070B5FEF784
:101BF0007BFA05461248006806462036317D090703
:101C0000090F012917D182694169914213D014301B
:101C10000446FFF72BFD707D0A49C000401841685B
:101C20000C6041686160446020602846FEF760FAFD
:101C3000FFF794FD02E02846FEF75AFA002070BD37
:101C40004C000020800B002070B5002802DA002034
:101C5000C04370BD7D25ED002946FEF7C7FA2A4630
:101C6000424328464143401E081814462946FEF7C1
:101C7000BDFA001970BD00000148006870470000FF
:101C80001000002010B508480168491C0160FFF7EA
:101C900041FF016C491E016403D1C16B0164FFF770
:101CA000A5FF00F003F810BD10000020F8B5FFF705
:101CB000E3FF0646FEF718FA0746134D1DE060697C
:101CC0001249301A143C88421AD22046FFF7A4FA6F
:101CD000E169206A8847FFF7CFFF0646607A8107EF
:101CE00008D5C10706D0400840006072204600F0C9
:101CF0004FF802E04008400060722C68AC42DED130
:101D00003846FEF7F5F9F8BD60000020FFFFFF7FC1
:101D1000002909D0012904D0022908D003290ED1B5
:101D200009E0406A10600AE01168416207E0417A08
:101D3000FD22114002E0417A02221143417200204B
:101D4000704770B50546FEF7CFF904462846FFF701
:101D500063FA2046FEF7CCF92846FFF7AFFC0020D7
:101D600070BDF8B517460A461E4604460A21079D6F
:101D7000FFF7C6FC6908490006986172E761002117
:101D80002662A1626062143464602460F8BD0000C1
:101D9000F8B50446FEF7A8F905462046FFF73CFAD9
:101DA000607A4008400060722846FEF7A1F9FFF70C
:101DB00063FF616A4018A062FEF796F9164B002196
:101DC000CA000093D3180546684689005B684658E8
:101DD0000CE03668B446B61A7769A66AB74203D0F3
:101DE000BF1B0E4EB74203D3664646509E42F0D10B
:101DF0000948001F0168491C016021461431009800
:101E0000FFF72DFC607A0121084360722846FEF737
:101E10006FF90020F8BD000060000020FFFFFF7F89
:101E200070B50446407AC0070ED0FEF75DF905464E
:101E30002046FFF7F1F92846FEF75AF9607A400884
:101E400040006072002070BD0020C04370BD0000E3
:101E5000FFB583B0039C04982718A74203D200273C
:101E6000FF43381B049006E1252803D0BC4200D272
:101E700020700DE10026042208230599491C0591D4
:101E800008782D2812D02B2812D0202812D02328F1
:101E900012D0302812D00A780025ED43303A0A2AB1
:101EA0000FD205A800F029F9054616E0102006E03B
:101EB0001643E2E71E43E0E7202000E0012006434E
:101EC000DBE72A2809D1491C0698059120C806900D
:101ED000002D02DA6D42102006430020C04300901E
:101EE000059801782E2918D1401C059001780A46E2
:101EF000303A0A2A04D205A800F0FFF8009008E062
:101F00002A2908D1401C0590069802C80690009125
:101F10000846002801DA00200090059900200A7880
:101F2000682A01D06C2A02D1491C10460591097813
:101F30000A236F297CD00CDC63291FD004DC2529FF
:101F40007AD058290DD17DE064297FD0692908D144
:101F50007CE070295ED073292CD0752978D078293F
:101F600072D0BC4201D2252020700599641C0878EB
:101F7000002800D07AE7491E059179E0F00608D4E0
:101F800020206D1E002D04DDBC4200D22070641C98
:101F9000F7E706980178001D0690BC4200D2217038
:101FA000202002E0BC4200D22070641C6D1E002D77
:101FB000F8DC5DE0069808C80690002B00D13DA330
:101FC0001846FFF79BFC0099002902DD884200DDDE
:101FD0000846F10609D420212A466D1E824204DDFE
:101FE000BC4200D22170641CF6E7002106E0BC422E
:101FF00001D21A782270491C5B1C641C8142F6DBFA
:1020000020212A466D1E824232DDBC4200D2217060
:10201000641CF6E7681C02D10825012006430098DD
:10202000019006980296009504C8102306901AE0C5
:1020300006E001E00CE007E0BC4229D2252017E7CA
:10204000082305E040210E43102301E002210E4346
:102050006C2801D068281DD0069804C80690009806
:1020600002960095019039462046FFF701F9044693
:102070000598401C059005980078002800D0F3E6EC
:102080000498002811D00020BC420CD220700CE033
:10209000641CEDE706980188001D06908AB2B0071F
:1020A000DDD512B2DBE7203FF877039807B0201A9E
:1020B000F0BD0000284E554C4C2900000020704710
:1020C00000207047002070470020704710B5FEF7D1
:1020D0000BF8FFF7CDF9FFF705F8FFF7B5FBFFF7B2
:1020E00057FCFFF727FCFFF765F9FFF757FCFFF7F1
:1020F000BDFCFFF739FC002010BD0146002006E0C2
:10210000531C0B600A2312785843303810180A68A1
:102110001378303B0A2BF3D3704700000000000017
:1021200000000000000000000000000000000000AF
:10213000000000000000000000000000010000009E
:102140000200000003000000040000000600000080
:102150000700000008000000090000000000000067
:10216000000000000000000000000000010000006E
:102170000200000003000000040000000000010055
:102180000200010003000100020001000400010040
:10219000020001000300010002000100050001002F
:1021A0000200010003000100020001000400010020
:1021B000020001000300010002000100060001000E
:1021C0000200010003000100020001000400010000
:1021D00002000100030001000200010005000100EF
:1021E00002000100030001000200010004000100E0
:1021F00002000100030001000200010007000100CD
:1022000002000100030001000200010004000100BF
:1022100002000100030001000200010005000100AE
:10222000020001000300010002000100040001009F
:10223000020001000300010002000100060001008D
:10224000020001000300010002000100040001007F
:10225000020001000300010002000100050001006E
:10226000020001000300010002000100040001005F
:10227000020001000300010002000100303132338E
:10228000343536373839616263646566003031321F
:10229000333435363738394142434445460000002F
:1022A000C9200008C1200008BD200008C520000882
:1022B000D022000800000020740000007411000803
:1022C00044230008740000200C1000008411000852
:1022D0000400000001000000000000000024F400E1
:1022E0000000000000000000010000001C000020B1
:1022F0001C00002078000000020000002C000020DC
:102300002C000020200000000A0000003C000020FB
:102310003C0000202C000000000000000000000035
:1023200000000000000000000000000000000000AD
:10233000000000000000000000000000000000009D
:042340000000000099
:04000005080000B936
:00000001FF
