:020000040800F2
:1000000080100020CD0000081105000895010008AF
:1000100000000000000000000000000000000000E0
:1000200000000000000000000000000013050008B0
:100030000000000000000000130100081505000882
:10004000DF00000800000000DF000008DF000008FB
:10005000DF000008DF000008DF000008DF00000804
:1000600000000000DF000008DF000008DF000008DB
:10007000DF000008DF000008DF00000800000000CB
:10008000DF000008DF000008DF000008DF000008D4
:10009000DF000008DF000008DF000008DF000008C4
:1000A000DF000008DF000008DF0000080506000888
:1000B00015060008DF0000080348854600F096F8A2
:1000C00000480047110200088010002004488047C3
:1000D00004480047FEE7FEE7FEE7FEE7FEE7FEE72F
:1000E000B9050008B9000008EFF3108072B6704738
:1000F00080F3108870472A4A1368012B03D001232C
:100100001360284A1060284A116028482849016075
:100110007047EFF3108272B62148016800291DD0A4
:10012000002101601F48016800290AD0EFF309810E
:10013000203900680160F0C144464D4656465F468E
:10014000F0C1194909680968F0C9F0B4F0C9A046BE
:10015000A946B246BB46F0BC81F3098882F31088F9
:10016000042040420047104908600E490020086002
:100170000B49012008600F480F49026811430160D4
:100180000A480B4901600D480068006880F3088840
:1001900062B67047EFF3098000B500F013FC00BDB4
:1001A00070000020680000206C00002004ED00E0DA
:1001B0000000001020ED00E00000FF0008ED00E06E
:1001C00030B50B46014600202022012409E00D46EF
:1001D000D5409D4205D31D469540491B2546954077
:1001E00040191546521E002DF1DC30BD064C01258C
:1001F000064E05E0E36807CC2B430C3C98471034CF
:10020000B442F7D3FFF75CFF88160008A816000871
:1002100010B501F059F9002010BD0000F8B50146F5
:100220000024203101220A714B79022B03D00421D2
:10023000C16301242DE003681D680E26B5431D60CF
:1002400003681D686D086D001D60436C1D68FF2606
:100250000136B5431D60104B5D68066C1C273E409F
:100260001746B7403D435D60836CC56C5D60036DB0
:10027000002B07D01E68FF250135AE431E60436D7D
:10028000856D5D604A7100220A71816B002900D082
:1002900088472046F8BD00000000024002488168FF
:1002A00042688918816070470000002010B5084836
:1002B00000240168821511430160204600F00AF80D
:1002C000002801D0012401E000F028F8204610BDEC
:1002D0000020024070B50F4E0024716805460029C9
:1002E00015D07D20C000FFF76BFF01460A4800686B
:1002F000FFF766FF00F02CF8002808D1042D06D285
:1003000000222946401E00F01FF8356000E001245D
:10031000204670BD000000200C00002008B50948F0
:1003200001680122114301600068104000900548F7
:100330004038C26B01040A43C263C06B084000909E
:1003400008BD00004010024010B500F06BF910BD70
:10035000094910B5401E884201D9012010BD074C43
:1003600060610321081F00F05DF90020A0610720F3
:100370002061002010BD0000FFFFFF0000E000E052
:100380007047704770477047F8B503680446DA69EC
:100390001868996816072546360F8035002E60D0FC
:1003A000584EFF2721370E400740374372D0D707FA
:1003B00006D0C70504D501271F62AB683B43AB607D
:1003C000930708D5CB0706D0276802233B62AB68AA
:1003D00004273B43AB60530708D5CB0706D02768FB
:1003E00004233B62AB6802273B43AB60130709D58C
:1003F00020230340334305D0266808233362AE68C8
:100400001E43AE60AB68002B38D092060AD520227E
:100410001040D2051140084304D0E16E002901D0FC
:1004200020468847A86821688968490601D40007E2
:1004300029D5204600F0D2F82068816849061ED5EB
:10044000826840218A438260A06F002817D02E491D
:100450008163A06FFFF7E2FE00280FD0A06F816BD1
:100460000BE0960616D5012720263F0706400F40D1
:100470003E430FD0E16E22E020468847F8BD20467B
:10048000FFF781FFF8BD2046FFF77DFF0020A86041
:10049000F8BDFFE7D60208D54E0206D501200005BB
:1004A00018622046FFF76EFFF2E716060AD501270D
:1004B0008026FF05064039400E4303D0216F0029F6
:1004C000DAD1E5E751060DD541060BD51A6820466D
:1004D00040218A431A60202129600021216700F011
:1004E00015F8D5E7110205D5410003D52046FFF7E1
:1004F00048FFCDE7D101CBD50028C9DA2046FFF768
:100500003FFFC5E701000010C905000870477047AC
:100510007047704710B500F0E9FA00F0CBFDFFF727
:10052000BDFE00F0EFFA10BD70B51F4DA968382070
:1005300001401E481E4C08290DD0430010291BD035
:10054000182913D0202914D0286801218004400FD5
:100550008140184624E02060A8683C2180090840BA
:100560001449085C2168C140216070BD7D200002F3
:10057000F1E70120C003EEE7E9688A07E968920F16
:100580004906490F491C032A00D01846FFF718FEF8
:100590000146E8684004400E4843E968490F491C99
:1005A000FFF70EFED7E700000010024000127A00AD
:1005B0000C0000201415000801200249C0068860C4
:1005C0007047000000ED00E010B5806A002201468F
:1005D0004031CA83CA82FFF7D6FE10BD01680A689F
:1005E000FF2321339A430A6001688A68044B1A404A
:1005F0008A60202284210A500021C16670470000D1
:10060000FEFFFFEF10B50248FFF7BEFE10BD000071
:100610007400002010B50248FFF7B6FE10BD0000C0
:10062000000100208307FF22DB0E9A408907090E94
:100630009940002808DB830809489B001B181868AC
:1006400090430843186070470007000F083883087C
:1006500004489B001B18D86990430843D861704731
:1006600000E400E000ED00E0002806D002060D499D
:10067000120E03D0C0B2085C401C70470204120E78
:1006800004D00004000E085C093070470202120E0C
:1006900004D00002000E085C11307047000E085CA8
:1006A000193070475415000802E008C8121F08C12D
:1006B000002AFAD170477047002001E001C1121FE3
:1006C000002AFBD17047000003480168814201D035
:1006D000012070470020704754000020FEB50446FA
:1006E00009A8E0C8194620461430089BA061226280
:1006F00061626061E56218462A462321A36200F028
:1007000036FAE16AA06A0F4B4218121F616A206A2A
:1007100000F0D0F92146E06120318E754E75002041
:10072000E763A06327642063087520676067009013
:10073000019023462046044A1946443000F010FD3B
:100740000020FEBD8D0E00082D100008143006C8D4
:1007500008384A6006C80838116040600060704779
:1007600010B5FFF7A3FDFFF7D2FE002010BD10B5B6
:1007700000F0D0F8FFF7F4FF10BD0000FFB589B01E
:100780000446149E1298139F01900097700601D59D
:100790004A4801E0494811380890F00601D576082A
:1007A0007600F00701D0302000E0202007900020E4
:1007B0000690B0070DD5002A03DA2D20524206908C
:1007C00007E0700701D52B2002E0300701D520207B
:1007D00006900025002A04D13020694608720125C0
:1007E0000CE00C980A2815D01107090F1209089877
:1007F000415C02A841556D1C002AF2D1BD4200DDCA
:100800002F460198112132460A40C01B2021002AA0
:1008100006D015E010460A21FFF7D2FC0246E6E7B3
:10082000069A002A08D0002806DD401E04E00A9A35
:10083000944200D22170641C0246401E002AF6DC5D
:10084000069A002A06D00A9A944201D2069A227089
:10085000401E641CF20606D509E00A9A944201D2B1
:10086000079A2270641C0246401E002AF5DC3022E2
:100870003B467F1EAB420CDD0A9B9C4200D222709D
:10088000641CF5E70A9B9C4201D2535D2370641CF3
:1008900000E002AA2B466D1E002B08DD009B002BFA
:1008A000F0D104E00A9A944200D22170641C0246FE
:1008B000401E002AF6DC20460DB0F0BD651600088B
:1008C0001FB5094C14230121C90203930A22601A9F
:1008D0006B4607C30023054A05A1204600F056FBDE
:1008E000204600F08DFB1FBD900900206F07000817
:1008F0006D61696E0000000070B5044C044D02E0AB
:1009000020688047241DAC42FAD370BD7C160008D5
:100910008016000870B5044C044D02E02068804742
:10092000241DAC42FAD370BD80160008841600085E
:1009300010B5FFF7D9FB034A5188491C5180FFF7D6
:10094000D7FB10BD4800002010B5FFF7CDFB0A4CC7
:100950006188491E09B26180002909DC002161809B
:10096000FFF7C6FB6068002801D000F06FF910BDEA
:10097000FFF7BEFB10BD00004800002010B5FFF7D8
:10098000D3FD0B487D21C9000068FFF719FC094918
:10099000401E884208D80849084A4861FF20D070A4
:1009A0000020886107200861FFF7A6FF10BD000046
:1009B0000C000020FFFFFF0000E000E020ED00E061
:1009C000704700000446C16912A000F0A7F815A006
:1009D000A16900F0A3F817A0616900F09FF819A0C1
:1009E000216900F09BF81BA0E16800F097F81DA0BA
:1009F000A16800F093F81FA0616800F08FF821A0B3
:100A0000216800F08BF82348016823A000F086F8E5
:100A1000FEE700007073723A203078253038780A8B
:100A2000000000002070633A203078253038780AC2
:100A300000000000206C723A203078253038780AA7
:100A4000000000007231323A203078253038780AC0
:100A5000000000007230333A203078253038780AB0
:100A6000000000007230323A203078253038780AA1
:100A7000000000007230313A203078253038780A92
:100A8000000000007230303A203078253038780A83
:100A9000000000004C0000206861726420666175EF
:100AA0006C74206F6E207468726561643A202573DF
:100AB0000A000000F0B50546121DD008C0004038FD
:100AC000094E02460024A700641CD651102CFAD30C
:100AD0001162002151629162D16230322AC2012139
:100AE0000906C163F0BD0000EFBEADDE10B5FFF733
:100AF000FBFA034A1178491C1170FFF7F9FA10BD8F
:100B00001400002010B5FFF7EFFA034A1178491ED0
:100B10001170FFF7EDFA10BD140000200FB410B5EE
:100B200003AB7F210548029A00F090FB0348FFF7D2
:100B300047FF10BC08BC04B018470000000B0020A1
:100B40000268516002680A6001604860704702688C
:100B5000516002680A6001604860704706C8083842
:100B60004A6006C80838116040600060704730B5C0
:100B70000346C9B2042A16D3840714D10D020D43CB
:100B80002C042C4305E01C605C609C60103ADC6027
:100B90001033102AF7D201E010C3121F042AFBD22F
:100BA00001E019705B1C521EFBD230BD10B504462B
:100BB00000202072FFF798FA0C3406CC083C4A60FB
:100BC00006CC083C116064602460FFF791FA10BD08
:100BD000064A00210B01D35C834202D10801801830
:100BE0007047491C0329F5DB0020704718000020DE
:100BF000F8B5044617460E460846FFF7E9FF0546D6
:100C0000FFF796FE291D686800E000688842FCD165
:100C1000FFF79AFE802006432672082239462046B6
:100C200000F0EAF8FFF760FA69680C344C60696814
:100C300021606C602D1D6560FFF75AFAF8BD007ADF
:100C4000000601D5012070470020704770B5FFF7FE
:100C50004BFA124C05466088002815D1A068FFF7B2
:100C600003FD401E0E4AC10051586268143991427A
:100C70000AD020700B4861600078002808D0104628
:100C80001C301C31FFF737FA2846FFF731FA70BDE8
:100C900010461C301C31FFF72EFAF5E74800002003
:100CA000800B00201400002010B50446FFF71CFA4A
:100CB000024620462030017D09090901491C0175C1
:100CC000407D0A49C000411820464B681430186026
:100CD0004B68A361486061610548A16B8368194353
:100CE00081601046FFF704FA10BD0000800B002061
:100CF0004800002010B50446FFF7F6F921461431EC
:100D00000CC9083953600CC908391A604960096078
:100D10003521095DCA0006498B5851188B4204D110
:100D20000449A36B8A689A438A60FFF7E1F910BD12
:100D3000800B00204800002008B509A0FFF7EEFE58
:100D40000AA0FFF7EBFE12A0032300900122194630
:100D500012A0FFF7E3FE19A0FFF7E0FE08BD0000B8
:100D60000A205C207C202F0A000000002D20525415
:100D7000202D2020202020546872656164204F704F
:100D800065726174696E672053797374656D0A00CA
:100D9000417072203134203230323000202F207CDC
:100DA000205C202020202025642E25642E25642010
:100DB0006275696C642025730A00000020323030AF
:100DC00036202D203230313920436F7079726967B7
:100DD00068742062792072742D7468726561642071
:100DE0007465616D0A000000014600E0491C0A7844
:100DF000002AFBD1081A704710B5002A08D0034614
:100E00000C781C70491C5B1C002C05D0521EF7D1BD
:100E100010BD19705B1C00E00021521EF9D110BDFD
:100E200010B5002209480A4C42801146CB001B191C
:100E30005B60491C1B602029F8DB1F2101704260A8
:100E4000826002480C304060006010BD4800002005
:100E5000800B002010B5074CA068FFF705FC401E72
:100E60000549C0000858143860601C30FFF77BF952
:100E700010BD000048000020800B002001484060A9
:100E800000607047600000207047000070B5134894
:100E90000468FFF729F905462046FFF72BFF0421D8
:100EA000342001552046443000F04AF92046FFF72F
:100EB000C6FE012802D1206F00280AD02146143135
:100EC0000748FFF73DFE2846FFF712F9FFF7BEFE81
:100ED00070BD2046FFF76AFEF5E700004C000020D9
:100EE0005400002000F002F8FCE7000070B523E099
:100EF000FFF7FAF80546FFF7E7FB002826D015486C
:100F000001680C4605C90839426005C908391060F6
:100F10004960143C0960FFF70BFD216F002901D0E7
:100F2000204688472046FFF78AFE012809D0FFF7B0
:100F30000BFD2846FFF7DCF8FFF7C6FB0028D7D1EA
:100F400070BD2046FFF732FEFFF7FEFC2846FFF794
:100F5000CFF870BD540000201FB5084820231F2281
:100F600080216C460FC40023054A06A1783800F0A2
:100F70000DF80248783800F043F81FBD800A0020C1
:100F8000E50E00087469646C65000000FFB585B06B
:100F90000FADE0CD0C460A4601210598FFF728FE6B
:100FA0000E986A46E1C22146089B079A0598FFF70A
:100FB00095FB09B0F0BD70B504462030007D0007F8
:100FC000000F022802D00020C04370BDFFF78CF84C
:100FD000054620461430FFF7C1FD2046443000F09E
:100FE0001DF92846FFF784F82046FFF75DFE002034
:100FF00070BD000001480068704700004C000020F0
:1010000010B5014620318A7D01234A7593400222A2
:1010100083630A75FFF7CFFF03480068002801D0FB
:10102000FFF714FE002010BD4C00002010B5044650
:101030000120C043206320461430FFF78FFD204677
:10104000FFF732FEFFF702FE10BD000070B5FFF79C
:101050004BF805461248006806462036317D0907E0
:10106000090F012917D182694169914213D01430C7
:101070000446FFF773FD707D0A49C00040184168BF
:101080000C6041686160446020602846FFF730F8DA
:10109000FFF7DCFD02E02846FFF72AF8002070BDCC
:1010A0004C000020800B00200148006870470000C1
:1010B0001000002010B508480168491C0160FFF7C6
:1010C00099FF016C491E016403D1C16B0164FFF7F4
:1010D000BDFF00F003F810BD10000020F8B5FFF7C9
:1010E000E3FF0646FFF700F80746134D1DE0606971
:1010F0001249301A143C88421AD22046FFF726FBC8
:10110000E169206A8847FFF7CFFF0646607A8107CA
:1011100008D5C10706D0400840006072204600F0A4
:1011200035F802E04008400060722C68AC42DED125
:101130003846FEF7DDFFF8BD60000020FFFFFF7FAF
:1011400070B50546FEF7D0FF04462846FFF7FEFAC5
:101150002046FEF7CDFF2846FFF728FD002070BD92
:10116000F8B517460A461E4604460A21079DFFF7B2
:101170003FFD6908490006986172E7610021266217
:10118000A1626062143464602460F8BDF8B504465E
:10119000FEF7AAFF05462046FFF7D8FA607A400816
:1011A000400060722846FEF7A3FFFFF77DFF616AEB
:1011B0004018A062FEF798FF164B0021CA0000936A
:1011C000D3180546684689005B6846580CE03668C7
:1011D000B446B61A7769A66AB74203D0BF1B0E4E53
:1011E000B74203D3664646509E42F0D10948001FDD
:1011F0000168491C0160214614310098FFF7A7FCE3
:10120000607A0121084360722846FEF771FF0020D2
:10121000F8BD000060000020FFFFFF7F70B50446AE
:10122000407AC0070ED0FEF75FFF05462046FFF765
:101230008DFA2846FEF75CFF607A40084000607235
:10124000002070BD0020C04370BD0000FFB583B01A
:10125000039C04982718A74203D20027FF43381B9A
:10126000049006E1252803D0BC4200D220700DE195
:101270000026042208230599491C059108782D2889
:1012800012D02B2812D0202812D0232812D0302898
:1012900012D00A780025ED43303A0A2A0FD205A869
:1012A00000F027F9054616E0102006E01643E2E7B5
:1012B0001E43E0E7202000E001200643DBE72A2868
:1012C00009D1491C0698059120C80690002D02DA24
:1012D0006D42102006430020C0430090059801781D
:1012E0002E2918D1401C059001780A46303A0A2A66
:1012F00004D205A800F0FDF8009008E02A2908D1E2
:10130000401C0590069802C80690009108460028E7
:1013100001DA00200090059900200A78682A01D09F
:101320006C2A02D1491C1046059109780A236F29BD
:101330007CD00CDC63291FD004DC25297AD0582905
:101340000DD17DE064297FD0692908D17CE0702926
:101350005ED073292CD0752978D0782972D0BC4200
:1013600001D2252020700599641C0878002800D03F
:101370007AE7491E059179E0F00608D420206D1E19
:10138000002D04DDBC4200D22070641CF7E70698F3
:101390000178001D0690BC4200D22170202002E09E
:1013A000BC4200D22070641C6D1E002DF8DC5DE094
:1013B000069808C80690002B00D13DA31846FFF7F9
:1013C00013FD0099002902DD884200DD0846F10680
:1013D00009D420212A466D1E824204DDBC4200D27F
:1013E0002170641CF6E7002106E0BC4201D21A78A5
:1013F0002270491C5B1C641C8142F6DB20212A46BA
:101400006D1E824232DDBC4200D22170641CF6E7C0
:10141000681C02D108250120064300980190069817
:101420000296009504C8102306901AE006E001E039
:101430000CE007E0BC4229D2252017E7082305E08D
:1014400040210E43102301E002210E436C2801D0FD
:1014500068281DD0069804C806900098029600954A
:10146000019039462046FFF789F904460598401C4B
:10147000059005980078002800D0F3E6049800282D
:1014800011D00020BC420CD220700CE0641CEDE7AF
:1014900006980188001D06908AB2B007DDD512B209
:1014A000DBE7203FF877039807B0201AF0BD000073
:1014B000284E554C4C2900000020704700207047F2
:1014C000002070470020704710B5FEF70DFEFFF7B3
:1014D00055FAFFF731FCFFF7D1FCFFF7A1FCFFF74E
:1014E000EFF9FFF7D1FCFFF737FDFFF7B3FC002062
:1014F00010BD0146002006E0531C0B600A23127841
:101500005843303810180A681378303B0A2BF3D34D
:101510007047000000000000000000000000000014
:1015200000000000000000000000000000000000BB
:1015300000000000010000000200000003000000A5
:101540000400000006000000070000000800000082
:10155000090000000000010002000100030001007A
:10156000020001000400010002000100030001006C
:10157000020001000500010002000100030001005B
:10158000020001000400010002000100030001004C
:10159000020001000600010002000100030001003A
:1015A000020001000400010002000100030001002C
:1015B000020001000500010002000100030001001B
:1015C000020001000400010002000100030001000C
:1015D00002000100070001000200010003000100F9
:1015E00002000100040001000200010003000100EC
:1015F00002000100050001000200010003000100DB
:1016000002000100040001000200010003000100CB
:1016100002000100060001000200010003000100B9
:1016200002000100040001000200010003000100AB
:10163000020001000500010002000100030001009A
:10164000020001000400010002000100030001008B
:1016500002000100303132333435363738396162B7
:10166000636465660030313233343536373839419A
:101670004243444546000000C5140008BD1400085C
:10168000B9140008C1140008A816000800000020C2
:1016900074000000A80600081C1700087400002051
:1016A0000C100000B8060008040000000100000053
:1016B000000000000024F400000000000000000012
:1016C000010000001C0000201C0000207800000029
:1016D000020000002C0000202C0000202000000050
:1016E0000A0000003C0000203C0000202C0000000C
:1016F00000000000000000000000000000000000EA
:1017000000000000000000000000000000000000D9
:0C171000000000000000000000000000CD
:04000005080000B936
:00000001FF
